:020000040000FA
:100000000C945D000C9485000C9485000C94850084
:100010000C9485000C9485000C9485000C9485004C
:100020000C9485000C9485000C9485000C9485003C
:100030000C9485000C9485000C9485000C9485002C
:100040000C945A0C0C9485000C94280C0C94020C03
:100050000C9485000C9485000C9485000C9485000C
:100060000C94A40C0C948500000000080002010010
:100070000003040700000000000000000000000072
:10008000250028002B0000000000240027002A0083
:10009000040404040404040402020202020203032E
:1000A0000303030301020408102040800102040836
:1000B0001020010204081020C30D11241FBECFEF31
:1000C000D8E0DEBFCDBF24E0AEE4B1E001C01D92B8
:1000D000AF3EB207E1F711E0A0E0B1E0ECE3F2E2FD
:1000E00002C005900D92AE34B107D9F710E0CDE50E
:1000F000D0E004C02197FE010E94240FCC35D10727
:10010000C9F70E94170E0C941C110C94000090E08B
:10011000FC01EC55FF4F249180579F4FFC018491C7
:10012000882399F090E0880F991FFC01EA57FF4F50
:10013000A591B491FC01E458FF4F859194918FB73C
:10014000F894EC91E22BEC938FBF08950895CF9330
:10015000DF93AC01E091F103F091F2033097F1F0FD
:100160009091F0038091EF039817C0F090E0292F51
:1001700030E02617370754F4D901AC5ABC4F240F8E
:10018000351FE90128812C939F5FF1CF1092F00376
:100190006093EF03CB01DF91CF910994DF91CF9171
:1001A0000895AF92BF92CF92DF92EF92FF920F939A
:1001B0001F93CF93DF936C017B018B01040F151FFD
:1001C000EB015E01AE18BF08C017D10759F0699165
:1001D000D601ED91FC910190F081E02DC6010995C9
:1001E000892B79F7C501DF91CF911F910F91FF9076
:1001F000EF90DF90CF90BF90AF900895FC01538DAA
:10020000448D252F30E0842F90E0821B930B5417F0
:1002100010F0CF96089501970895FC01918D828D7D
:10022000981761F0A28DAE0FBF2FB11D5D968C9116
:10023000928D9F5F9F73928F90E008958FEF9FEF55
:100240000895FC01918D828D981731F0828DE80F11
:10025000F11D858D90E008958FEF9FEF0895FC01CB
:10026000918D228D892F90E0805C9F4F821B910998
:100270008F739927089587EF93E00E942F0121E063
:10028000892B09F420E0822F089580E090E0892BEB
:1002900029F00E943B0181110C9400000895FC019B
:1002A000A48DA80FB92FB11DA35ABF4F2C91848DD7
:1002B00090E001968F739927848FA689B7892C9334
:1002C000A089B1898C91837080648C93938D848D87
:1002D000981306C00288F389E02D80818F7D80838A
:1002E0000895EF92FF920F931F93CF93DF93EC014A
:1002F00081E0888F9B8D8C8D98131AC0E889F989CD
:10030000808185FF15C09FB7F894EE89FF896083CF
:10031000E889F98980818370806480839FBF81E050
:1003200090E0DF91CF911F910F91FF90EF90089592
:10033000F62E0B8D10E00F5F1F4F0F731127E02E6D
:100340008C8D8E110CC00FB607FCFACFE889F989A5
:10035000808185FFF5CFCE010E944F01F1CFEB8D5B
:10036000EC0FFD2FF11DE35AFF4FF0829FB7F89479
:100370000B8FEA89FB8980818062CFCFCF93DF9397
:10038000EC01888D8823B9F0AA89BB89E889F989AD
:100390008C9185FD03C0808186FD0DC00FB607FCE2
:1003A000F7CF8C9185FFF2CF808185FFEDCFCE0115
:1003B0000E944F01E9CFDF91CF91089590E0FC01B9
:1003C000E859FF4F2491FC01EC55FF4F3491FC019B
:1003D000E057FF4FE491EE23C9F0222339F0233098
:1003E00001F1A8F4213019F1223029F1F0E0EE0FEB
:1003F000FF1FE458FF4FA591B4918FB7F894EC918B
:10040000611126C030953E233C938FBF089527305D
:10041000A9F02830C9F0243049F7809180008F7D01
:1004200003C0809180008F7780938000DFCF84B5F8
:100430008F7784BDDBCF84B58F7DFBCF8091B000FB
:100440008F778093B000D2CF8091B0008F7DF9CFAD
:100450003E2BDACF1F93CF93DF93182FEB010E942F
:100460008700209739F460E0812FDF91CF911F91B1
:100470000C94DE01CF3FD10511F461E0F5CFE12FFF
:10048000F0E0E859FF4FE491E33031F140F4E1301E
:10049000B1F0E230E1F0C038D1057CF7E4CFE730CD
:1004A00029F1E83059F1E430B1F7809180008062A1
:1004B00080938000D0938B00C0938A0004C084B5E1
:1004C000806884BDC7BDDF91CF911F91089584B529
:1004D000806284BDC8BDF7CF809180008068809322
:1004E0008000D0938900C0938800EDCF8091B00048
:1004F00080688093B000C093B300E5CF8091B000D6
:1005000080628093B000C093B400DDCF3FB7F89411
:100510008091E5039091E603A091E703B091E80391
:1005200026B5A89B05C02F3F19F00196A11DB11D4E
:100530003FBFBA2FA92F982F8827BC01CD01620F8A
:10054000711D811D911D42E0660F771F881F991F45
:100550004A95D1F7089520919A03260F3327331F28
:1005600021323105ECF42091BE03FC0190E080E0E3
:10057000243069F082E00895A0919A032191AC01A2
:1005800046585C4FA40FB52FB11D2C9301968617CA
:1005900098F380919A03680F60939A0380E008951E
:1005A00081E008951092BE0381E08093C003109211
:1005B000BF0361E082E10E94DE0161E083E10E940D
:1005C000DE01E9EBF0E080818E7F808380818D7F8A
:1005D000808388E48093B80085E48093BC0008950C
:1005E0000895E091F0038091EF03E81730F4F0E014
:1005F000EC5AFC4F808190E008958FEF9FEF0895B3
:100600009091F0038091EF032FEF3FEF981748F49C
:10061000E92FF0E0EC5AFC4F208130E09F5F90938F
:10062000F003C90108958091EF039091F003891BB5
:10063000990B0895CF93DF93CB01EA01642F0E94B9
:10064000AB02CE01DF91CF910895CF93DF931F923C
:10065000CDB7DEB7698361E0CE0101960E94AB029F
:1006600081E090E00F90DF91CF91089590E080E0DD
:10067000089520914E01211109C021E020934E01DF
:100680003091A0042091A1043CBD2DBD60E0FC018F
:1006900084810C94DE0161E0FC0184810E94DE0112
:1006A00080914E01811110924E0108958EBD00007F
:1006B0000DB407FEFDCF8EB508958FEF0C94560351
:1006C0000F931F93CF93DF938C012FB7F8948091F2
:1006D000F3039091F403A091F503B091F6032FBFBB
:1006E000EC010E945D038F3FB1F02FB7F894809129
:1006F000F3039091F403A091F503B091F6032FBF9B
:100700008C1B9D0B8017910760F380E0DF91CF91E8
:100710001F910F91089581E0F9CFCF92DF92EF9270
:10072000FF920F931F93CF93DF93EC01162F690174
:100730007A018E81882389F08F8198859C012F5FB3
:100740003F4F38872F838230924018F40E945D0318
:10075000F3CFCE010E944B031E82CE010E943903CB
:100760008CE291E00E946003812F80640E94560316
:1007700008E110E0D701C601002E04C0B695A79588
:10078000979587950A94D2F70E945603085011094D
:10079000083F8FEF180771F78FEF0E94560310E0A4
:1007A0000E945D038A8787FF04C01F3F11F01F5F0F
:1007B000F7CFDF91CF911F910F91FF90EF90DF90D6
:1007C000CF900895CF92DF92EF92FF920F93CF9345
:1007D000DF93EC01690182E1411551056105710565
:1007E00099F08B85833039F089E0440F551F661FDF
:1007F000771F8A95D1F79A01AB0168E1CE010E947B
:100800008D03882319F084E08D832DC08EEF0E9424
:10081000560376018EEFD81AF70181917F010E946D
:100820005603EC14FD04C1F78FEF0E9456038FEFBF
:100830000E9456030E945D038A878F71853071F490
:10084000011116C0CE010E944B0381E0DF91CF91D0
:100850000F91FF90EF90DF90CF90089581E18D830D
:10086000CE010E944B03CE010E944B0380E0EECFED
:1008700088E592E00E946003811102C085E1C4CF47
:1008800020E030E0A9016DE0CE010E948D038823B5
:1008900011F084E1B9CF0E945D038111FACFD2CF6C
:1008A0000F9340915001509151016091520170910C
:1008B0005301411551056105710589F0082F24E5A3
:1008C00031E090E080E00E94E203882349F010923A
:1008D000500110925101109252011092530181E087
:1008E0000F9108950F93CF93C82F80914F018111DD
:1008F00005C0C1E08C2FCF910F9108954091060162
:100900005091070160910801709109010C2F24E5B5
:1009100031E090E080E00E94E203811102C0C0E07B
:10092000E9CFCC2331F381E00E9450048823B9F34E
:1009300010924F01DFCFAF92BF92CF92DF92EF9232
:10094000FF921F93CF93DF936B017C01142F809153
:10095000060190910701A0910801B09109018C1541
:100960009D05AE05BF0509F4BFC081E00E94720479
:100970008823E1F1809106008823A1F08091000096
:1009800090910100A0910200B0910300C816D90611
:10099000EA06FB0639F48091070090910800892B44
:1009A00009F461C0C0920000D0920100E092020000
:1009B000F092030080910B00A7019601833039F07B
:1009C00099E0220F331F441F551F9A95D1F761E11B
:1009D00090E080E00E948D03882391F083E0809373
:1009E000050090E080E00E944B0380E0DF91CF9112
:1009F0001F91FF90EF90DF90CF90BF90AF90089540
:100A00002FB7F8948091F3039091F403A091F5032C
:100A1000B091F6032FBFEC010E945D0380930A00A2
:100A20008F3FC1F42FB7F8948091F3039091F403B2
:100A3000A091F503B091F6032FBF8C1B9D0B8D3257
:100A4000914050F38FE08093050090E080E00E9499
:100A50004B03C7CF8E3FC1F51092080010920700DC
:100A600081E080930600C4E5D1E084E5A82E83E010
:100A7000B82E0E945D038993AC16BD06D1F7809114
:100A80000700909108009E5F9093080080930700F4
:100A900020910900222319F081159240E8F08091FD
:100AA00006008823C9F080910700909108009C01FE
:100AB0002F5F3F4F30930800209307008230924011
:100AC00028F40E945D03EFCF8DE0BDCF90E080E081
:100AD0000E944B0310920600C0920601D0920701BB
:100AE000E0920801F092090140914F01412B40939F
:100AF0004F0181E07BCF4F925F926F927F928F92F6
:100B00009F92AF92BF92CF92DF92EF92FF920F939C
:100B10001F93CF93DF93EC014230510561057105BE
:100B200090F480E0DF91CF911F910F91FF90EF90B3
:100B3000DF90CF90BF90AF909F908F907F906F90FD
:100B40005F904F90089589859A85AB85BC85019605
:100B5000A11DB11D84179507A607B70710F3CB8811
:100B6000DC88ED88FE888F89803109F042C0BB2780
:100B7000A72F962F852F480159012A013B01C80E46
:100B8000D91EEA1EFB1E8091060190910701A091DB
:100B90000801B0910901C816D906EA06FB0699F5C5
:100BA0008F898031C1F5B301A201552766277727C8
:100BB000440F551F4C5A5E4FFA01918280828091FA
:100BC0004F01816080934F018A89823080F08D814E
:100BD0009E81AF81B8858C0D9D1DAE1DBF1D80937C
:100BE000500190935101A0935201B093530181E0C1
:100BF00099CFDB01CA01E7E0B695A7959795879550
:100C0000EA95D1F7B8CF40E0C701B6010E949B0436
:100C10008111C6CF86CFB301A2014F775527662732
:100C20007727440F551F440F551F4C5A5E4FFA014A
:100C300080829182A282B382C2CF8F929F92AF9222
:100C4000BF92CF92DF92EF92FF920F931F93CF93B9
:100C5000DF93FC0181859285A385B4850196A11D52
:100C6000B11D84179507A607B70770F480E0DF91E0
:100C7000CF911F910F91FF90EF90DF90CF90BF9099
:100C8000AF909F908F90089583889488A588B688A8
:100C90008789803189F5BB27A72F962F852FE901FA
:100CA0006A017B018F01BC01CD01680D791D8A1D90
:100CB0009B1D8090060190900701A0900801B090C4
:100CC000090186169706A806B90601F5F801878975
:100CD000803111F5DD24EE24FF24F601EE0FFF1F15
:100CE000EC5AFE4F80819181B0E0A0E08883998327
:100CF000AA83BB8381E0BBCFDB01CA01C7E0B69505
:100D0000A79597958795CA95D1F7C9CF40E00E94DE
:100D10009B048111DBCFAACFE894C7F8DD24EE2431
:100D2000FF24F601EE0FFF1FEE0FFF1FEC5AFE4FE0
:100D300080819181A281B381BF70D8CF8F929F9221
:100D4000AF92BF92CF92DF92EF92FF920F931F93D9
:100D5000CF93DF93EC018D8181110EC080E0DF9194
:100D6000CF911F910F91FF90EF90DF90CF90BF90A8
:100D7000AF909F908F9008950B891C892D893E8993
:100D8000041715072607370748F34A015B0182302D
:100D900031F48A869B86AC86BD8681E0E0CF8114E3
:100DA0009104A104B10449F41E821F821886198699
:100DB0001A861B861C861D86F0CF0A851B852C850E
:100DC0003D85EB8DFC8D858590E00996B901A801E4
:100DD0004150510961097109082E04C07695679543
:100DE000579547950A94D2F775016401E1E0CE1A50
:100DF000D108E108F10804C0F694E794D794C794A9
:100E00008A95D2F7C416D506E606F70620F0012B20
:100E1000022B032B11F58F89988DA98DBA8D8E83A6
:100E20009F83A887B9878E010A5F1F4FC114D10421
:100E3000E104F10409F4ADCF4E815F8168857985C5
:100E400098018B8D9C8D0E941D0691E0C91AD108D6
:100E5000E108F1088111EACF81CFC41AD50AE60A68
:100E6000F70AE1CF3F924F925F926F927F928F92FB
:100E70009F92AF92BF92CF92DF92EF92FF920F9329
:100E80001F93CF93DF93CDB7DEB72C970FB6F894AF
:100E9000DEBF0FBECDBF5C01DC015B968D909C90E8
:100EA0005C9716964D905D906D907C9019974114CB
:100EB00051046104710409F468C0BFEF4B1A5B0A66
:100EC0006B0A7B0A312CF40181859285A385B48558
:100ED0009C01AD012F5F3F4F4F4F5F4F29873A87EE
:100EE0004B875C87730162011D821E821F821886F8
:100EF000F40181859285A385B4852D813E814F8142
:100F00005885281739074A075B0708F056C08985B6
:100F10009A85AB85BC858C159D05AE05BF0550F443
:100F200082E0C82ED12CE12CF12C92E0492E512CDC
:100F3000612C712C9E012F5F3F4FB701A601C401A8
:100F40000E941D068823C9F189819A81AB81BC81E9
:100F5000892B8A2B8B2B09F1260137019FEF491A28
:100F6000590A690A790A2D813E814F8158852F5F80
:100F70003F4F4F4F5F4F2D833E834F8358873FEF47
:100F8000C31AD30AE30AF30AB3CFF40140805180B5
:100F9000628073803324339496CFC414D504E6045E
:100FA000F70409F70FEF1FEF2FEF3FE0B701A6019E
:100FB000C4010E947B05811119C080E02C960FB6F8
:100FC000F894DEBF0FBECDBFDF91CF911F910F917F
:100FD000FF90EF90DF90CF90BF90AF909F908F9059
:100FE0007F906F905F904F903F900895D501169637
:100FF0004D915D916D917C91199741155105610558
:10100000710539F097018601C4010E947B05882390
:10101000A1F2D5011696CD92DD92ED92FC92199730
:10102000332051F0D701C6010196A11DB11DF40175
:1010300080839183A283B383F5018789908DA18DED
:10104000B28D892B8A2B8B2B39F48481C78AD08E61
:10105000E18EF28E80688483F501848180628483CE
:1010600081E0ACCF1F93CF93DF93EC01162F8C81DF
:1010700087FF2AC06E857F858889998941E00E9413
:101080009B04882361F1EA8980E2E89FF001112442
:10109000EC5AFE4F309719F18D81823040F48B89E4
:1010A0009C89AD89BE89848F958FA68FB78F8F89D4
:1010B000988D938F828F8F89988DA98DBA8DB58BDE
:1010C000A48B8C818F778C83111103C08C818F7ED0
:1010D0008C83812FDF91CF911F910C94720480E05B
:1010E000DF91CF911F9108951F93CF93DF93EC0170
:1010F0008D81813031F090E080E0DF91CF911F91C0
:1011000008958C8181FFF7CF82FD1BC090E080E0C5
:101110000E9439030E945D03182F90E080E00E9436
:101120004B031F3F41F78C8185FF1EC08D818823B3
:1011300021F060E0CE010E9432088C818F7D8C838B
:10114000DACF4B895C896D897E898A859B85AC85E0
:10115000BD8584179507A607B707C1F2CE010E9487
:101160009E068111D3CFC7CF4091500150915101BC
:101170006091520170915301452B462B472B21F072
:1011800080E00E945004B7CF80618C832A853B8524
:10119000317080E092E0821B930BAFCF9F92AF92B1
:1011A000BF92CF92DF92EF92FF920F931F93CF9354
:1011B000DF9300D000D01F92CDB7DEB78C016D83D6
:1011C000DC0115968C911597813009F0B9C0149601
:1011D0008C9181FFB5C082FD9FC0D8015B96ED91D7
:1011E000FC915C971A96AD90BD90CD90DC901D97C8
:1011F00094809A94B601A50189E0769567955795F4
:1012000047958A95D1F79422B1E0BB22992009F441
:101210009FC0D8015B96ED91FC915C971696CD909E
:10122000DD90ED90FC901997B2E0CB1AD108E1085F
:10123000F108858504C0CC0CDD1CEE1CFF1C8A95D2
:10124000D2F74685578560897189C40ED51EE61E82
:10125000F71EC90CD11CE11CF11CA114B10409F04A
:101260000AC1F8014285538564857585838994890F
:10127000A589B689481759076A077B0708F4FBC098
:1012800081E00E947204882309F45AC0C0920601CA
:10129000D0920701E0920801F092090180914F017C
:1012A000816080934F01F501EC5AFE4F8D81808360
:1012B000F80182859385A485B5850196A11DB11D90
:1012C00082879387A487B5874389548965897689FE
:1012D000481759076A077B0738F42481838B948B5E
:1012E000A58BB68B20682483D80114968C9183FD3E
:1012F0009FC081E090E00F900F900F900F900F90A3
:10130000DF91CF911F910F91FF90EF90DF90CF90E1
:10131000BF90AF909F900895F801438954896589E3
:10132000768982859385A485B585481759076A070C
:101330007B0709F452CFC8010E949E0681114DCF50
:1013400081E090E0D80113969C938E93129749C048
:10135000D80116964D915D916D917C911997A114CC
:10136000B10409F071C0411551056105710589F598
:1013700057968D919D910D90BC91A02D0097A10540
:10138000B10509F04FC0C8010E9432078823C1F29D
:10139000D8015B96ED91FC915C971696CD90DD900F
:1013A000ED90FC901997B2E0CB1AD108E108F10852
:1013B000858504C0CC0CDD1CEE1CFF1C8A95D2F781
:1013C0004685578560897189C40ED51EE61EF71EB5
:1013D00048CF9E012F5F3F4FCF010E941D06811114
:1013E00003C090E080E087CF89819A81AB81BC8186
:1013F000F801238D348DF901278948EF5FEF60E014
:1014000070E0203121F048EF5FEF6FEF7FE084174D
:101410009507A607B70730F0C8010E94320781116F
:10142000F8CE8ECFF80186839783A087B187F1CE5F
:10143000F8018581882309F483CF61E0C8010E9407
:101440003208811156CF7CCF6A017B01B2E0CB1A02
:10145000D108E108F108858504C0CC0CDD1CEE1C28
:10146000FF1C8A95D2F74685578560897189C40E1D
:10147000D51EE61EF71E41E0C701B6010E949B047F
:10148000811111CF5DCF08950F931F93CF93DF93F9
:10149000EC0188819981009759F02A813B812617B8
:1014A000370730F081E0DF91CF911F910F910895C0
:1014B0008B016F5F7F4F0E944F10009759F0998307
:1014C00088831B830A832C813D81232B59F7FC01E0
:1014D0001082E8CF80E0E7CFCF93DF93EC018881E3
:1014E0009981009711F00E94C60F198218821D82FF
:1014F0001C821B821A82DF91CF910895CF93DF93D4
:1015000085ED8093BC008091760390917703A09144
:101510007803B09179030796A11DB11D23E0B6951C
:10152000A795979587952A95D1F72091BC0024FD22
:1015300003C01092BE0336C04091760350917703EA
:101540006091780370917903452B462B472B69F303
:101550000097A105B10541F025E32A95F1F70000B8
:101560000197A109B109E1CF8091750391E09093B2
:1015700074038823B9F0C091B800D091BA0080916B
:10158000BC008A7B8093BC0060E082E10E94DE01A7
:1015900060E083E10E94DE010E94D202D093BA0093
:1015A000C093B800DF91CF910895DF92EF92FF9240
:1015B0000F931F93CF93DF93CDB7DEB72E970FB660
:1015C000F894DEBF0FBECDBF4DE050E060E471E0A7
:1015D00087EF93E00E94D10018861F821A86198631
:1015E0001C861B8670E060E0CE0107960E94440ACC
:1015F00081115FC0CE0107960E946C0A8091EF03B3
:101600009091F003891B990B181619060CF06FC006
:1016100084E994E00E940003D82E1A8219821C8269
:101620001B821E821D820F8118850115110569F02C
:10163000EB84FC84B701CE0101960E94440A81111B
:1016400041C0CE0101960E946C0ADD861E860D8186
:101650001E810F5F1F4FB801CE0101960E94440A00
:101660008823C1F129813A818D819E81BE01635F0A
:101670007F4F820F931F0E9415111E830D830981D6
:101680001A810115110549F0ED80FE80B701CE01E8
:1016900007960E94440A811122C0CE0107960E943B
:1016A0006C0A89819A81009709F4A8CF0E94C60F1D
:1016B000A5CF1C861B866DE471E08F8198850E9402
:1016C00015119CCFFE82ED82B80189819A810E941A
:1016D0001511BBCFCE0101960E946C0AD0CFFC86BB
:1016E000EB86B8018F8198850E941511DACF8F8122
:1016F0009885009709F47DC00E94B10E8B0120915E
:10170000040130910501621B730B85E0869F9001F7
:10171000879F300D11248091020190910301280FC1
:10172000391F30930301209302014BEF4603C001A0
:10173000479F900D11244091000150910101840FA9
:10174000951F9093010180930001121613060CF46B
:1017500054C01092030110920201181619068CF061
:1017600010920101109200018091020190910301F9
:101770008F3F910534F08FEF90E0909303018093B9
:10178000020180910001909101018F3F910534F099
:101790008FEF90E09093010180930001609102012E
:1017A0007091030189E00E942A0270E060E08AE003
:1017B0000E942A0260910001709101018BE00E9459
:1017C0002A0210930501009304018F8198850097E8
:1017D00011F00E94C60F2E960FB6F894DEBF0FBE12
:1017E000CDBFDF91CF911F910F91FF90EF90DF90D0
:1017F000089560E070E0CB0181CF181619060CF453
:10180000B3CFAECF1F920F920FB60F9211242F932A
:101810003F934F935F936F937F938F939F93AF9378
:10182000BF93EF93FF9387EF93E00E944F01FF91E7
:10183000EF91BF91AF919F918F917F916F915F9148
:101840004F913F912F910F900FBE0F901F901895C1
:101850001F920F920FB60F9211242F938F939F9385
:10186000EF93FF93E0910704F09108048081E091E9
:101870000D04F0910E0482FD1BC090818091100434
:101880008F5F8F7320911104821741F0E091100453
:10189000F0E0E950FC4F958F80931004FF91EF9199
:1018A0009F918F912F910F900FBE0F901F901895C1
:1018B0008081F4CF1F920F920FB60F9211242F93B5
:1018C0003F938F939F93AF93BF938091F303909136
:1018D000F403A091F503B091F6033091E40323E003
:1018E000230F2D3758F50196A11DB11D2093E40358
:1018F0008093F3039093F403A093F503B093F6035E
:101900008091E5039091E603A091E703B091E8038D
:101910000196A11DB11D8093E5039093E603A0936A
:10192000E703B093E803BF91AF919F918F913F91EF
:101930002F910F900FBE0F901F90189526E8230F40
:101940000296A11DB11DD2CF1F920F920FB60F921A
:1019500011242F933F934F935F936F937F938F93B4
:101960009F93AF93BF93EF93FF938091B900887FCC
:10197000803609F44AC0F0F5883209F4A7C018F59A
:10198000803109F49BC0B8F4882309F4F9C0883089
:1019900009F494C0FF91EF91BF91AF919F918F9106
:1019A0007F916F915F914F913F912F910F900FBE5B
:1019B0000F901F901895883109F488C0803251F734
:1019C0008093BD0314C0803409F49DC040F480337B
:1019D000B9F38833F9F68093BD0385ECB0C0803548
:1019E00009F485C0883509F496C0883499F60E94B8
:1019F0007E0AD0CF883909F48CC038F5883729F0B1
:101A000050F4883611F0803729F683E08093BE03C6
:101A10001092BC0357C0883809F47BC0803919F094
:101A2000803809F0B7CF8091BC03803208F071C0D4
:101A3000E091BC0381E08E0F8093BC038091BB00DA
:101A4000F0E0E456FC4F80833DC0803B39F0E0F489
:101A5000803A09F479C0883A09F09CCF84E08093F9
:101A6000BE0310929B0310929A03E091EB03F09156
:101A7000EC03099580919A0381110FC081E0809356
:101A80009A0310927A0309C0803C09F4A6CF883CDF
:101A900009F4A3CF883B09F07DCFE0919B0381E05F
:101AA0008E0F80939B03F0E0E658FC4F808180937B
:101AB000BB0090919B0380919A0329C08091E3031E
:101AC0008093BB0085EC8093BC0064CF9091E203CF
:101AD0008091E103981758F5E091E20381E08E0FC1
:101AE0008093E203F0E0EF53FC4F8081E9CFE09177
:101AF000E20381E08E0F8093E2038091BB00F0E06F
:101B0000EF53FC4F80839091E2038091E10398179B
:101B1000C8F285E8D8CFE091E20381E08E0F809390
:101B2000E2038091BB00F0E0EF53FC4F8083809193
:101B3000C00381115CCF81E08093BF0384EA80936E
:101B4000BC001092BE0326CF85EC8093BC0010929F
:101B5000BE038091BC03803230F4E091BC03F0E01E
:101B6000E456FC4F10826091BC0370E0E091E90301
:101B7000F091EA038CE993E009951092BC030ACF37
:101B80001092BD0334CFE7EFF3E01382128288EEA8
:101B900093E0A0E0B0E084839583A683B78324E13B
:101BA00031E03183208325EC30E03587248724EC35
:101BB00030E03787268720EC30E0318B208B21EC1A
:101BC00030E0338B228B22EC30E0358B248B26ECFB
:101BD00030E0378B268B118E128E138E148EE4E933
:101BE000F4E01382128284839583A683B78386E20E
:101BF00091E091838083E0EAF4E080E580831182C4
:101C0000E2EAF4E0158216821186138682E090E003
:101C1000A0E0B0E084879587A687B78713A215A6B2
:101C200014A688E391E093A782A717A60895789455
:101C300084B5826084BD84B5816084BD85B58260D1
:101C400085BD85B5816085BD80916E008160809382
:101C50006E001092810080918100826080938100EB
:101C600080918100816080938100809180008160FB
:101C7000809380008091B10084608093B100809156
:101C8000B00081608093B00080917A00846080937E
:101C90007A0080917A00826080937A0080917A0045
:101CA000816080937A0080917A00806880937A00C6
:101CB0001092C10089E00E9487008AE00E9487009C
:101CC0008BE00E9487001092F0031092EF031092B5
:101CD000EE031092ED030E94D20286EA90E0909308
:101CE000EC038093EB0387EA90E09093EA03809300
:101CF000E90388EC8093BA0085ED9AE09093F203B3
:101D00008093F103C0E0D0E00E9486024B015C01A9
:101D100084E6C82ED12CE12CF12C0E948602681991
:101D200079098A099B09683E734081059105A8F3EA
:101D300021E0C21AD108E108F10888EE880E83E09C
:101D4000981EA11CB11CC114D104E104F10429F7AF
:101D50002097D1F20E943B018823B1F20E9400003B
:101D6000D3CF1F93FC0199278827BC01E8941191D8
:101D70001032E9F3193010F01E30C8F31B3251F065
:101D80001D3249F4689406C00E94D80E610F711D7F
:101D9000811D911D119110531A30B0F33EF49095AE
:101DA0008095709561957F4F8F4F9F4F1F9108953C
:101DB000592F482F372F262F660F771F881F991FFF
:101DC000660F771F881F991F620F731F841F951F4F
:101DD000660F771F881F991F08952F923F924F9289
:101DE0005F926F927F928F929F92AF92BF92CF92AB
:101DF000DF92EF92FF920F931F93CF93DF93CDB7B4
:101E0000DEB7CA1BDB0B0FB6F894DEBF0FBECDBF2B
:101E100009942A88398848885F846E847D848C84FC
:101E20009B84AA84B984C884DF80EE80FD800C8105
:101E30001B81AA81B981CE0FD11D0FB6F894DEBFE8
:101E40000FBECDBFED010895EE0FFF1F0590F49179
:101E5000E02D09940F931F93CF93DF938230910568
:101E600010F482E090E0E091ED04F091EE0430E0B7
:101E700020E0B0E0A0E0309799F42115310509F495
:101E80004AC0281B390B24303105D8F58A819B8143
:101E90006115710589F1FB0193838283FE0111C0F5
:101EA000408151810281138148175907E0F048179A
:101EB000590799F4109761F012960C9312971396A4
:101EC0001C933296CF01DF91CF911F910F9108950E
:101ED0000093ED041093EE04F4CF2115310551F079
:101EE0004217530738F0A901DB019A01BD01DF0158
:101EF000F801C1CFEF01F9CF9093EE048093ED0488
:101F0000CDCFFE01E20FF31F81939193225031094F
:101F100039832883D7CF2091EB043091EC04232B15
:101F200041F420910C0130910D013093EC04209389
:101F3000EB0420910A0130910B012115310541F488
:101F40002DB73EB740910E0150910F01241B350B68
:101F5000E091EB04F091EC04E217F307A0F42E1BE0
:101F60003F0B2817390778F0AC014E5F5F4F2417FD
:101F7000350748F04E0F5F1F5093EC044093EB047D
:101F8000819391939FCFF0E0E0E09CCFCF93DF93DC
:101F90000097E9F0FC01329713821282A091ED04C0
:101FA000B091EE04ED0130E020E01097A1F4208123
:101FB0003181820F931F2091EB043091EC0428179C
:101FC000390709F061C0F093EC04E093EB04DF9172
:101FD000CF910895EA01CE17DF07E8F54A815B81CA
:101FE0009E0141155105B1F7E901FB83EA8349914F
:101FF0005991C40FD51FEC17FD0761F480819181C1
:102000000296840F951FE9019983888382819381C9
:102010009B838A83F0E0E0E012968D919C91139768
:102020000097B9F52D913C911197CD010296820F41
:10203000931F2091EB043091EC042817390739F6EF
:10204000309751F51092EE041092ED04B093EC0429
:10205000A093EB04BCCFD383C28340815181840F12
:10206000951FC817D90761F44E5F5F4F888199812A
:10207000480F591F518340838A819B8193838283B8
:102080002115310509F0B0CFF093EE04E093ED0493
:102090009ECFFD01DC01C0CF13821282D7CFB0E00A
:1020A000A0E0E5E5F0E10C94EF0E8C01009751F40F
:1020B000CB010E942A0F8C01C801CDB7DEB7E0E149
:1020C0000C940B0FFC01E60FF71F9C012250310905
:1020D000E217F30708F49DC0D901CD91DC91119767
:1020E000C617D70798F0C530D10530F3CE01049755
:1020F0008617970708F3C61BD70B2297C193D19376
:102100006D937C93CF010E94C60FD6CF5B01AC1AB2
:10211000BD0A4C018C0E9D1EA091ED04B091EE0401
:10212000512C412CF12CE12C109731F58091EB04CE
:102130009091EC048815990509F05CC04616570685
:1021400008F058C080910A0190910B01009741F46A
:102150008DB79EB740910E0150910F01841B950BD6
:10216000E817F90708F055C0F093EC04E093EB048E
:10217000F90171836083A0CF8D919C911197129684
:102180006C90129713967C901397A815B90559F582
:102190006C0142E0C40ED11CCA14DB0420F1AC0176
:1021A0004A195B09DA011296159780F062827382F0
:1021B00051834083D9016D937C93E114F10471F054
:1021C000D7011396FC93EE93129776CF22968C0F3D
:1021D0009D1FF90191838083F301EFCFF093EE040B
:1021E000E093ED0469CF4816590608F42C017D01EF
:1021F000D3019ACFCB010E942A0F7C01009749F0AE
:10220000AE01B8010E940C11C8010E94C60F8701DF
:1022100053CF10E000E050CFFB01DC0102C0019081
:102220000D9241505040D8F70895FB01DC01019018
:102230000D920020E1F70895F894FFCF7F007F0012
:102240001900FFFFFFFF0000EF0480000000000006
:102250007101D100FE00BE012F010D01210100001E
:10226000000025031A033603F00213030003F102F2
:1022700000000000CE08D1007408430A54656D7058
:0A228000657261747572653A200002
:107E0000112484B714BE81FFF0D085E080938100F7
:107E100082E08093C00088E18093C10086E0809377
:107E2000C20080E18093C4008EE0C9D0259A86E02C
:107E300020E33CEF91E0309385002093840096BBD3
:107E4000B09BFECF1D9AA8958150A9F7CC24DD24C4
:107E500088248394B5E0AB2EA1E19A2EF3E0BF2EE7
:107E6000A2D0813461F49FD0082FAFD0023811F036
:107E7000013811F484E001C083E08DD089C08234E0
:107E800011F484E103C0853419F485E0A6D080C0E4
:107E9000853579F488D0E82EFF2485D0082F10E0AE
:107EA000102F00270E291F29000F111F8ED06801E7
:107EB0006FC0863521F484E090D080E0DECF843638
:107EC00009F040C070D06FD0082F6DD080E0C81688
:107ED00080E7D80618F4F601B7BEE895C0E0D1E017
:107EE00062D089930C17E1F7F0E0CF16F0E7DF06D8
:107EF00018F0F601B7BEE89568D007B600FCFDCFD4
:107F0000A601A0E0B1E02C9130E011968C91119780
:107F100090E0982F8827822B932B1296FA010C0160
:107F200087BEE89511244E5F5F4FF1E0A038BF0790
:107F300051F7F601A7BEE89507B600FCFDCF97BE46
:107F4000E89526C08437B1F42ED02DD0F82E2BD052
:107F50003CD0F601EF2C8F010F5F1F4F84911BD097
:107F6000EA94F801C1F70894C11CD11CFA94CF0C13
:107F7000D11C0EC0853739F428D08EE10CD085E9AC
:107F80000AD08FE07ACF813511F488E018D01DD067
:107F900080E101D065CF982F8091C00085FFFCCF94
:107FA0009093C60008958091C00087FFFCCF809118
:107FB000C00084FD01C0A8958091C6000895E0E648
:107FC000F0E098E1908380830895EDDF803219F02E
:107FD00088E0F5DFFFCF84E1DECF1F93182FE3DFCA
:107FE0001150E9F7F2DF1F91089580E0E8DFEE27F6
:047FF000FF270994CA
:027FFE00040479
:00000001FF
