:020000040000FA
:100000000C94DF000C9407010C9407010C94070179
:100010000C9407010C9407010C9407010C94070140
:100020000C9407010C9407010C9407010C94070130
:100030000C9407010C9407010C9407010C94070120
:100040000C94D3050C9407010C94A1050C947B052A
:100050000C9407010C9407010C9407010C94070100
:100060000C941D060C94070100407A10F35A00A06E
:10007000724E18090010A5D4E80000E87648170071
:1000800000E40B54020000CA9A3B000000E1F505B1
:10009000000080969800000040420F000000A086FB
:1000A00001000000102700000000E803000000002D
:1000B0006400000000000A000000000001000000D1
:1000C00000002C76D888DC674F0823DFC1DFAE59EB
:1000D000E1B1B796E5E3E453C63AE651997696E87E
:1000E000E6C28426EB898C9B62ED407C6FFCEFBC02
:1000F0009C9F40F2BAA56FA5F490055A2AF75C932D
:100100006B6CF9676DC11BFCE0E40D47FEF520E662
:10011000B500D0ED902E0300943577050080841E45
:10012000080000204E0A000000C80C333333330FA0
:10013000986E12831141EF8D2114893BE65516CF3D
:10014000FEE6DB18D1844B381BF77C1D901DA4BB49
:10015000E424203284725E228100C9F124ECA1E5FE
:100160003D2700000000240027002A0000000000B6
:10017000250028002B000000000023002600290095
:10018000040404040404040402020202020203033D
:100190000303030301020408102040800102040845
:1001A00010200102040810200000000800020100D5
:1001B0000003040700000000000000008107112474
:1001C0001FBECFEFD8E0DEBFCDBF11E0A0E0B1E0B1
:1001D000E6EFFDE102C005900D92A635B107D9F713
:1001E00022E0A6E5B1E001C01D92A33DB207E1F710
:1001F00010E0CFEDD0E004C02197FE010E94010D78
:10020000CE3DD107C9F70E94BA070C94F90E0C94A1
:10021000000008950895AF92BF92CF92DF92EF92BF
:10022000FF920F931F93CF93DF936C017B018B01A0
:10023000040F151FEB015E01AE18BF08C017D107F0
:1002400059F06991D601ED91FC910190F081E02D7A
:10025000C6010995892B79F7C501DF91CF911F91CF
:100260000F91FF90EF90DF90CF90BF90AF900895E7
:10027000FC01538D448D252F30E0842F90E0821BAC
:10028000930B541710F0CF96089501970895FC0131
:10029000918D828D981761F0A28DAE0FBF2FB11D89
:1002A0005D968C91928D9F5F9F73928F90E00895E1
:1002B0008FEF9FEF0895FC01918D828D981731F09B
:1002C000828DE80FF11D858D90E008958FEF9FEFEF
:1002D0000895FC01918D228D892F90E0805C9F4FC5
:1002E000821B91098F739927089586E292E00E94FC
:1002F000690121E0892B09F420E0822F089580E034
:1003000090E0892B29F00E94750181110C94000066
:100310000895FC01A48DA80FB92FB11DA35ABF4F9A
:100320002C91848D90E001968F739927848FA689F4
:10033000B7892C93A089B1898C91837080648C9348
:10034000938D848D981306C00288F389E02D8081F7
:100350008F7D80830895EF92FF920F931F93CF9329
:10036000DF93EC0181E0888F9B8D8C8D98131AC0F0
:10037000E889F989808185FF15C09FB7F894EE89D7
:10038000FF896083E889F989808183708064808334
:100390009FBF81E090E0DF91CF911F910F91FF907F
:1003A000EF900895F62E0B8D10E00F5F1F4F0F7327
:1003B0001127E02E8C8D8E110CC00FB607FCFACFE2
:1003C000E889F989808185FFF5CFCE010E948901F6
:1003D000F1CFEB8DEC0FFD2FF11DE35AFF4FF082B3
:1003E0009FB7F8940B8FEA89FB8980818062CFCF19
:1003F000CF93DF93EC01888D8823B9F0AA89BB895C
:10040000E889F9898C9185FD03C0808186FD0DC046
:100410000FB607FCF7CF8C9185FFF2CF808185FF67
:10042000EDCFCE010E948901E9CFDF91CF910895F0
:10043000833081F028F4813099F08230A9F008955A
:100440008730A9F08830C9F08430B1F48091800001
:100450008F7D03C0809180008F7780938000089506
:1004600084B58F7784BD089584B58F7DFBCF80914F
:10047000B0008F778093B00008958091B0008F7D99
:10048000F9CFCF93DF93EDEAF1E08491E9E9F1E070
:10049000D491E5E8F1E0C491CC23A1F081110E9450
:1004A0001802EC2FF0E0EE0FFF1FEA58FE4FA59167
:1004B000B491EC91ED2381E090E009F480E0DF91CC
:1004C000CF91089580E090E0FACF1F93CF93DF9310
:1004D000282F30E0F901E855FE4F8491F901EC56E0
:1004E000FE4FD491F901E058FE4FC491CC23A9F0FE
:1004F000162F81110E941802EC2FF0E0EE0FFF1F63
:10050000E459FE4FA591B4918FB7F894EC91111175
:1005100008C0D095DE23DC938FBFDF91CF911F9170
:100520000895DE2BF8CFCF93DF9390E0FC01EC56DB
:10053000FE4F249180589E4FFC0184918823D1F076
:1005400090E0880F991FFC01EE59FE4FA591B491E0
:10055000FC01E459FE4FC591D49161110EC09FB7C3
:10056000F8948C91E22FE0958E238C932881E223DE
:10057000E8839FBFDF91CF9108958FB7F894EC91F6
:10058000E22BEC938FBFF6CF3FB7F8948091BF0179
:100590009091C001A091C101B091C20126B5A89B64
:1005A00005C02F3F19F00196A11DB11D3FBFBA2F05
:1005B000A92F982F8827BC01CD01620F711D811DC5
:1005C000911D42E0660F771F881F991F4A95D1F74A
:1005D00008958F929F92AF92BF92CF92DF92EF9247
:1005E000FF924B015C010E94C4026B017C010E94DE
:1005F000C4026C197D098E099F09683E734081050C
:100600009105A8F321E0821A9108A108B10888EEAB
:10061000C80E83E0D81EE11CF11C81149104A104D2
:10062000B10429F7FF90EF90DF90CF90BF90AF908B
:100630009F908F90089520919701260F3327331FA5
:1006400021323105ECF42091FC01FC0190E080E0C6
:10065000243069F082E00895A09197012191AC01C6
:1006600049585E4FA40FB52FB11D2C9301968617E4
:1006700098F380919701680F6093970180E0089547
:1006800081E008951092FC0181E08093FB011092BB
:10069000D60161E082E10E94650261E083E10E948F
:1006A0006502E9EBF0E080818E7F808380818D7F21
:1006B000808388E48093B80085E48093BC0008952B
:1006C000CF93DF9391E0909376018823B9F0C091A6
:1006D000B800D091BA008091BC008A7B8093BC00A6
:1006E00060E082E10E94650260E083E10E946502B1
:1006F0000E944203D093BA00C093B800DF91CF911B
:1007000008958F929F92AF92BF92CF92DF92EF9215
:10071000FF920F931F93CF93DF93D0912502D13295
:1007200008F0D7C0182FC09124020E94C4026B01A8
:100730007C018091FC0181116BC082E08093FC01FF
:100740001093FB018FEF8093FA011092F901D0937F
:10075000F801A4E0B2E0E8EDF1E080E0D81391C048
:100760001092D7018091D701CC0FC82BC093D7012D
:100770008091D601813009F088C01092D6010E9484
:10078000C4026B017C018091D7018093BB008091F2
:10079000FE019091FF01A0910002B0910102892B0E
:1007A0008A2B8B2BA1F00E94C4020091FE011091B4
:1007B000FF0120910002309101026C197D098E0920
:1007C0009F09061717072807390708F442C08091C8
:1007D000BC0083FDD8CF85EC8093BC000E94C4028E
:1007E0006B017C018091FC01823009F450C0809142
:1007F000FA018F3F09F46FC08091FA01803209F449
:100800006CC08091FA01803309F469C084E026C08D
:100810008091FE019091FF01A0910002B091010230
:10082000892B8A2B8B2B09F484CF0E94C4028090E1
:10083000FE019090FF01A0900002B09001026C199F
:100840007D098E099F0986169706A806B90608F045
:1008500070CF8091FD010E94600385E01092030239
:100860001092250210920202DF91CF911F910F91F9
:10087000FF90EF90DF90CF90BF90AF909F908F90C0
:1008800008959D9191938F5F69CF85EEA5CF80915B
:10089000FE019091FF01A0910002B0910102892B0D
:1008A0008A2B8B2B09F49ECF0E94C4020091FE017B
:1008B0001091FF0120910002309101026C197D0915
:1008C0008E099F09061717072807390708F08ACFEE
:1008D000C0CF81E0C3CF80E0C1CF82E0BFCF83E053
:1008E000BDCF0895E091C8018091C701E81730F4A9
:1008F000F0E0EA5AFE4F808190E008958FEF9FEF7D
:1009000008959091C8018091C7012FEF3FEF98178C
:1009100048F4E92FF0E0EA5AFE4F208130E09F5F73
:100920009093C801C90108958091C7019091C801B1
:10093000891B990B0895CF92DF92EF92FF920F934C
:100940001F93CF93DF937C01CB018A012091020298
:10095000222389F0EB016B01C40ED51ECC15DD05F9
:1009600069F06991D701ED91FC910190F081E02D42
:10097000C7010995F3CF642F0E941B03C801DF91C3
:10098000CF911F910F91FF90EF90DF90CF9008953E
:10099000CF93DF931F92CDB7DEB769832091020218
:1009A0002223F9F020912502203258F021E030E096
:1009B000FC013383228390E080E00F90DF91CF91A0
:1009C000089580910302E82FF0E0EC5FFD4F9981DC
:1009D00090838F5F809303028093250281E090E0F3
:1009E000ECCF61E0CE0101960E941B03F7CF90E0AF
:1009F00080E00895CF93DF93EC018881998100977F
:100A000011F00E94A30D198218821D821C821B8284
:100A10001A82DF91CF910895FB0101900020E9F740
:100A20003197AF01461B570BDC01ED91FC91028021
:100A3000F381E02D09940F931F93CF93DF93EC0183
:100A400088819981009759F02A813B8126173707C1
:100A500030F081E0DF91CF911F910F9108958B01CC
:100A60006F5F7F4F0E942C0E009759F09983888307
:100A70001B830A832C813D81232B59F7FC011082B3
:100A8000E8CF80E0E7CF85ED8093BC008091FE0148
:100A90009091FF01A0910002B09101020796A11D63
:100AA000B11D23E0B695A795979587952A95D1F71F
:100AB0002091BC0024FD03C01092FC0108954091D8
:100AC000FE015091FF016091000270910102452BDF
:100AD000462B472B69F30097A105B10541F025E3AB
:100AE0002A95F1F700000197A109B109E1CF8091A2
:100AF000FD010C9460031F920F920FB60F92112408
:100B00002F933F934F935F936F937F938F939F9315
:100B1000AF93BF93EF93FF9386E292E00E94890127
:100B2000FF91EF91BF91AF919F918F917F916F91C5
:100B30005F914F913F912F910F900FBE0F901F909B
:100B400018951F920F920FB60F9211242F938F9327
:100B50009F93EF93FF93E0913602F09137028081EB
:100B6000E0913C02F0913D0282FD1BC0908180919A
:100B70003F028F5F8F7320914002821741F0E09116
:100B80003F02F0E0EA5DFD4F958F80933F02FF91B9
:100B9000EF919F918F912F910F900FBE0F901F900B
:100BA00018958081F4CF1F920F920FB60F921124E7
:100BB0002F933F938F939F93AF93BF938091BB01EC
:100BC0009091BC01A091BD01B091BE013091BA01DC
:100BD00023E0230F2D3758F50196A11DB11D209359
:100BE000BA018093BB019093BC01A093BD01B09367
:100BF000BE018091BF019091C001A091C101B0914F
:100C0000C2010196A11DB11D8093BF019093C00147
:100C1000A093C101B093C201BF91AF919F918F91F9
:100C20003F912F910F900FBE0F901F90189526E8BF
:100C3000230F0296A11DB11DD2CF1F920F920FB6A6
:100C40000F9211242F933F934F935F936F937F9352
:100C50008F939F93AF93BF93EF93FF938091B900CE
:100C6000887F803609F44AC0F0F5883209F4A7C0BD
:100C700018F5803109F49BC0B8F4882309F4F9C051
:100C8000883009F494C0FF91EF91BF91AF919F918B
:100C90008F917F916F915F914F913F912F910F9025
:100CA0000FBE0F901F901895883109F488C08032CC
:100CB00051F78093FA0114C0803409F49DC040F4C8
:100CC0008033B9F38833F9F68093FA0185ECB0C02C
:100CD000803509F485C0883509F496C0883499F6C2
:100CE0000E944305D0CF883909F48CC038F5883785
:100CF00029F050F4883611F0803729F683E080938C
:100D0000FC011092B90157C0883809F47BC08039C2
:100D100019F0803809F0B7CF8091B901803208F01E
:100D200071C0E091B90181E08E0F8093B90180918B
:100D3000BB00F0E0E756FE4F80833DC0803B39F0BA
:100D4000E0F4803A09F479C0883A09F09CCF84E055
:100D50008093FC011092980110929701E091C501D7
:100D6000F091C60109958091970181110FC081E032
:100D7000809397011092770109C0803C09F4A6CFB7
:100D8000883C09F4A3CF883B09F07DCFE09198011E
:100D900081E08E0F80939801F0E0E958FE4F80814A
:100DA0008093BB00909198018091970129C0809118
:100DB000D7018093BB0085EC8093BC0064CF9091F9
:100DC000F9018091F801981758F5E091F90181E057
:100DD0008E0F8093F901F0E0E852FE4F8081E9CF59
:100DE000E091F90181E08E0F8093F9018091BB00C1
:100DF000F0E0E852FE4F80839091F9018091F80174
:100E00009817C8F285E8D8CFE091F90181E08E0FFC
:100E10008093F9018091BB00F0E0E852FE4F80839F
:100E20008091FB0181115CCF81E08093D60184EA3F
:100E30008093BC001092FC0126CF85EC8093BC000F
:100E40001092FC018091B901803230F4E091B90137
:100E5000F0E0E756FE4F10826091B90170E0E0913A
:100E6000C301F091C40189E991E009951092B9019B
:100E70000ACF1092FA0134CFCF92DF92EF92FF9215
:100E80000F931F93E82FF92F05C001501109210975
:100E9000310961F1908196239417B9F305C001508F
:100EA00011092109310911F1908196239413F7CF8B
:100EB000C12CD12CE12CF12C0AC08FEFC81AD80A12
:100EC000E80AF80A0C151D052E053F0579F080810A
:100ED0008623841791F36C2D7D2D8E2D9F2D1F91D0
:100EE0000F91FF90EF90DF90CF90089560E070E059
:100EF00080E090E01F910F91FF90EF90DF90CF90F6
:100F00000895E6E2F2E01382128288EE93E0A0E018
:100F1000B0E084839583A683B7832AE031E03183F0
:100F2000208325EC30E03587248724EC30E03787B8
:100F3000268720EC30E0318B208B21EC30E0338BA6
:100F4000228B22EC30E0358B248B26EC30E0378B83
:100F5000268B118E128E138E148EE3ECF2E0138228
:100F6000128284839583A683B7838CE191E0918379
:100F700080830895CF93DF93CDB7DEB7AE970FB6DA
:100F8000F894DEBF0FBECDBF789484B5826084BD77
:100F900084B5816084BD85B5826085BD85B581607D
:100FA00085BD80916E00816080936E0010928100FB
:100FB00080918100826080938100809181008160B6
:100FC0008093810080918000816080938000809177
:100FD000B10084608093B1008091B0008160809303
:100FE000B00080917A00846080937A0080917A00CA
:100FF000826080937A0080917A00816080937A0089
:1010000080917A00806880937A001092C10061E03C
:101010008CE00E94930260E08BE00E9493021092A9
:10102000C8011092C70110920302109225020E947B
:10103000420389E091E09093C6018093C5018AE064
:1010400091E09093C4018093C3018CE08093BA0037
:10105000E0913602F091370282E08083E091320223
:10106000F09133021082E0913402F09135028FEC5E
:10107000808310923E02E0913A02F0913B0286E0BA
:101080008083E0913802F091390280818061808311
:10109000E0913802F0913902808188608083E0918C
:1010A0003802F0913902808180688083E0913802B3
:1010B000F091390280818F7D80836AE271E086E25F
:1010C00092E00E940C0564E471E086E292E00E94E6
:1010D0000C05CE0101967C0188248394912C50E06C
:1010E000252E50E0352E60E08CE00E94650283E002
:1010F00090E00197F1F761E08CE00E94650283E2E5
:1011000090E00197F1F760E08CE00E946502EFE962
:10111000F1E06491EBE8F1E08491E82FF0E0EE0F6C
:10112000FF1FEA58FE4F8591949100E412E42FE0EE
:1011300030E0462F0E943C0761157105810591053D
:1011400029F06F5F7F4F8F4F9F4F9F701AA619A690
:101150001CA61BA61EA61DA62AE0A7010E94150A12
:10116000F70101900020E9F731978F010E191F094F
:10117000B801CE0189960E941B058111B9C0CE012C
:1011800089960E94FA0481E080930202F2E3F093D0
:101190002402109203021092250269A57AA5611516
:1011A000710521F083EC92E00E940C0582E30E941D
:1011B00081031092D1011092D2011092D3011092AA
:1011C000D4011092D50161E085E00E94930260E0B5
:1011D00085E00E94650264E170E080E090E00E949A
:1011E000E90261E085E00E9465028BE990E00197E9
:1011F000F1F760E085E00E94930201E117E20E94AE
:101200004102892B09F07CC001501109C1F760919E
:10121000CD017091CE018091CF019091D0011CA29F
:101220001BA21EA21DA218A61FA2870122E044E055
:101230000E94F7096C01009779F0FC0101900020F1
:10124000E9F731978F01081B190BB801CE0183967E
:101250000E941B058111C3C0CE0183960E94FA042F
:1012600067E471E086E292E00E940C054FA158A568
:101270006BA17CA186E292E00E940B0164E471E024
:1012800086E292E00E940C0581E080930202F4E67F
:10129000F093240210920302109225026BA17CA10C
:1012A0006115710521F083EC92E00E940C0584E643
:1012B0000E94810364E670E080E090E00E94E90211
:1012C0008BA19CA1009711F00E94A30D89A59AA55E
:1012D000009711F00E94A30D2114310409F403CFEB
:1012E0000E947501882309F4FECE0E940000FBCE07
:1012F0001EA70DA7B70189A59AA50E94F20E43CF9C
:1013000001E117E20E944102019721F40150110905
:10131000C9F77DCF28E2C22ED12C17E000E091E181
:10132000A92E97E2B92E0E944102892B29F481E06F
:10133000A81AB108C1F76BCF0E94C4022B013C016F
:1013400081E1A82E87E2B82E0E944102019729F47C
:1013500091E0A91AB108C1F75ACF0E94C4026419DA
:10136000750986099709693271058105910568F04B
:10137000E02FF0E0E753FE4F80859401012E01C07D
:10138000220F0A94EAF7822B8087111126C00F5F83
:1013900017E0E1E0CE1AD10809F0C1CF6091D10188
:1013A00070E090E080E00E948D0C6093C901709322
:1013B000CA018093CB019093CC016091D30170E07E
:1013C00090E080E00E948D0C6093CD017093CE017F
:1013D0008093CF019093D0011ACF1150DACF18A784
:1013E0000FA3B6018BA19CA10E94F20E39CFEF9200
:1013F0000F931F93CF93DF93E80134E047FD34E16F
:10140000042E000C550B57FF03C05195419551090F
:10141000E32E022F242FAE010E94460ACE01DF9157
:10142000CF911F910F91EF900895BB272A3051F46F
:10143000992342F4BDE290958095709561957F4F18
:101440008F4F9F4F0C94250ABB27FA01A62F6217D6
:10145000710581059105330B30FB66F0AA27660FF5
:10146000771F881F991FAA1FA21710F0A21B639550
:101470003850A9F7A05DAA3308F0A95DA19336F70B
:10148000B111B1931082CA010C947D0CA9E0B0E0B7
:10149000ECE4FAE00C94D00C6A01F22EB02E102F7E
:1014A000FBE3AF2EA01608F41BE31F5F012F27E01C
:1014B000AE014F5F5F4F0E94A50BBC018981982F41
:1014C0009970913009F43FC09BE2E1FC04C09E2D6D
:1014D0009170E0FC3AC05E2D5071E82FE87083FFF8
:1014E00046C084E0911101C083E0EF2DE81B8F1509
:1014F00008F0E0E0D6018E2F20E2552351F1992328
:1015000029F0D6019C93C60101966C0196012D5FCE
:101510003F4FE2FE24C08EE4D6018C9391E41196F5
:101520009C93119712968C93D9018E2F90E2811182
:101530001BC0E20FF32FF11D10828EEF9FEF299653
:10154000ECE00C94EC0C9DE2C6CF90E2C4CF2D935E
:1015500081508111FCCFCE0ED11CE0E0D0CF8EE6C1
:10156000D6018C9391E6DBCF9D938150E0CF482F3D
:10157000447082FF3DC084E0911101C083E08F156B
:1015800010F4EF2DE81BD6018E2F20E2552309F130
:10159000992329F0D6019C93C60101966C0196010E
:1015A0002D5F3F4FE2FE1BC089E4D6018C938EE491
:1015B00011968C93119786E412968C93D9018E2FF5
:1015C00090E2882309F4B5CF9D938150FACF2D93F3
:1015D00081508111FCCFCE0ED11CE0E0D9CF89E63D
:1015E000D6018C938EE611968C93119786E6E4CF04
:1015F0009B0177FF02C030E020E0A1E0B0E0911154
:1016000002C0B0E0A0E0F9013196AE0FBF1F8B2CF5
:10161000912CBB2009F461C05401EFEFAE1ABE0A51
:10162000AA0DBB1DFA161B0619F014F04F2D4A1B0C
:10163000511188C0E3FC59C07601A42FB0E2A1117A
:101640004FC0C40ED11C992309F45BC040E0D60101
:101650001196F60190836D01552309F448C0012FBE
:10166000060F9A81582F507184FF03C0913309F4FB
:10167000015010160CF047C0093008F008E0EEE207
:10168000FE2E5B01A01AB108850191948194910806
:101690002F3F320729F4D601FC92F60131966F01F3
:1016A0006217730794F1021713077CF5DB01A21B85
:1016B000B30BAA24A394B12CAC0EBD1EAA0DBB1D66
:1016C00011968C9121503109D601119628153905B2
:1016D000F4F0F60180836D01DBCFB12CA12CA0CFFB
:1016E000F701B1937F01A150AACF9111B0CFD601DC
:1016F000942F50E302C05D9391509111FCCFC40E22
:10170000D11C40E0ACCF01E0BACF80E3DBCF621761
:10171000730731F4963388F4953311F4552369F047
:10172000F6018083FD01842F90E2811108C0A40F8F
:10173000B11D1C9290E080E002CF81E3F1CF919344
:101740008150F3CF911183CF8ACF283008F027E062
:101750003327DA01990F311D87FD916000966105ED
:10176000710539F432602E5F3D9330E32A95E1F73D
:1017700008959F3F30F080387105610509F03C5FA6
:101780003C5F3D93913008F08068911DDF93CF93CB
:101790001F930F93FF92EF92192F987F9695E92F41
:1017A00096959695E90FFF27EE53FF4F992733271C
:1017B000EE24FF24A701E70105900894079428F47C
:1017C000360FE71EF81E491F511D660F771F881F31
:1017D000991F0694A1F70590079428F4E70EF81EC8
:1017E000491F561FC11D770F881F991F661F06943A
:1017F000A1F70590079428F4F80E491F561FC71F3C
:10180000D11D880F991F661F771F0694A1F70590B9
:10181000079420F4490F561FC71FD81F990F661F42
:10182000771F881F0694A9F784911095177041F0CF
:10183000D695C79557954795F794E7941A95C1F7AC
:10184000E8E6F0E0689415901591359165919591D1
:1018500005907FE27395E118F10A430B560BC90B13
:10186000D009C0F7E10CF11E431F561FC91FD01D40
:101870007EF4703311F48A95E6CFE894015030F08D
:10188000080F0AF40027021708F4202F2395022FCF
:101890007A3328F079E37D932A95E9F710C07D9398
:1018A0002A9589F606949795679537951795179415
:1018B000E118F10A430B560BC90BD00998F0239598
:1018C0007E9173957A3308F070E37C932013B8F718
:1018D0007E9170617D9330F0839571E37D9370E329
:1018E0002A95E1F71124EF90FF900F911F91CF916E
:1018F000DF91992787FD90950895DC01FC01672F02
:1019000071917723E1F7329704C07C916D937083D6
:101910006291AE17BF07C8F30895E89409C097FB1A
:101920003EF490958095709561957F4F8F4F9F4FB6
:101930009923A9F0F92F96E9BB279395F6958795FA
:1019400077956795B795F111F8CFFAF4BB0F11F4BD
:1019500060FF1BC06F5F7F4F8F4F9F4F16C0882364
:1019600011F096E911C0772321F09EE8872F762F9A
:1019700005C0662371F096E8862F70E060E02AF0DB
:101980009A95660F771F881FDAF7880F96958795C7
:1019900097F908952F923F924F925F926F927F92A4
:1019A0008F929F92AF92BF92CF92DF92EF92FF926F
:1019B0000F931F93CF93DF93CDB7DEB7CA1BDB0B1B
:1019C0000FB6F894DEBF0FBECDBF09942A883988C0
:1019D00048885F846E847D848C849B84AA84B984C7
:1019E000C884DF80EE80FD800C811B81AA81B981D3
:1019F000CE0FD11D0FB6F894DEBF0FBECDBFED01E7
:101A00000895EE0FFF1F0590F491E02D09940F93B8
:101A10001F93CF93DF938230910510F482E090E022
:101A2000E091D102F091D20230E020E0B0E0A0E0FD
:101A3000309799F42115310509F44AC0281B390B58
:101A400024303105D8F58A819B816115710589F1B2
:101A5000FB0193838283FE0111C040815181028189
:101A6000138148175907E0F04817590799F4109760
:101A700061F012960C93129713961C933296CF0135
:101A8000DF91CF911F910F9108950093D102109390
:101A9000D202F4CF2115310551F04217530738F027
:101AA000A901DB019A01BD01DF01F801C1CFEF01FE
:101AB000F9CF9093D2028093D102CDCFFE01E20FF5
:101AC000F31F819391932250310939832883D7CF13
:101AD0002091CF023091D002232B41F420910201BA
:101AE000309103013093D0022093CF022091000166
:101AF000309101012115310541F42DB73EB74091D8
:101B0000040150910501241B350BE091CF02F091A7
:101B1000D002E217F307A0F42E1B3F0B281739075A
:101B200078F0AC014E5F5F4F2417350748F04E0F39
:101B30005F1F5093D0024093CF02819391939FCF28
:101B4000F0E0E0E09CCFCF93DF930097E9F0FC0159
:101B5000329713821282A091D102B091D202ED018C
:101B600030E020E01097A1F420813181820F931F93
:101B70002091CF023091D0022817390709F061C0B7
:101B8000F093D002E093CF02DF91CF910895EA0164
:101B9000CE17DF07E8F54A815B819E0141155105AB
:101BA000B1F7E901FB83EA8349915991C40FD51F2D
:101BB000EC17FD0761F4808191810296840F951FD7
:101BC000E90199838883828193819B838A83F0E0F2
:101BD000E0E012968D919C9113970097B9F52D91A5
:101BE0003C911197CD010296820F931F2091CF0255
:101BF0003091D0022817390739F6309751F51092F5
:101C0000D2021092D102B093D002A093CF02BCCFE7
:101C1000D383C28340815181840F951FC817D90790
:101C200061F44E5F5F4F88819981480F591F51833E
:101C300040838A819B81938382832115310509F03A
:101C4000B0CFF093D202E093D1029ECFFD01DC0130
:101C5000C0CF13821282D7CFB0E0A0E0E2E3FEE073
:101C60000C94CC0C8C01009751F4CB010E94070D11
:101C70008C01C801CDB7DEB7E0E10C94E80CFC01A3
:101C8000E60FF71F9C0122503109E217F30708F411
:101C90009DC0D901CD91DC911197C617D70798F057
:101CA000C530D10530F3CE0104978617970708F3A6
:101CB000C61BD70B2297C193D1936D937C93CF0111
:101CC0000E94A30DD6CF5B01AC1ABD0A4C018C0E4D
:101CD0009D1EA091D102B091D202512C412CF12C29
:101CE000E12C109731F58091CF029091D0028815A8
:101CF000990509F05CC04616570608F058C0809157
:101D0000000190910101009741F48DB79EB7409179
:101D1000040150910501841B950BE817F90708F0A1
:101D200055C0F093D002E093CF02F9017183608334
:101D3000A0CF8D919C91119712966C90129713964B
:101D40007C901397A815B90559F56C0142E0C40EB3
:101D5000D11CCA14DB0420F1AC014A195B09DA0179
:101D60001296159780F06282738251834083D90165
:101D70006D937C93E114F10471F0D7011396FC93F9
:101D8000EE93129776CF22968C0F9D1FF9019183C7
:101D90008083F301EFCFF093D202E093D10269CFB9
:101DA0004816590608F42C017D01D3019ACFCB01C6
:101DB0000E94070D7C01009749F0AE01B8010E9416
:101DC000E90EC8010E94A30D870153CF10E000E087
:101DD00050CFFB01DC0102C001900D9241505040F8
:101DE000D8F70895FB01DC0101900D920020E1F786
:101DF0000895F894FFCF0000D30280000000000097
:101E0000AB010B013801F801690147015B010000DA
:101E10000000C8049B04F704710494048104720454
:101E20002A2A2A4D61737465722028362920546548
:101E3000726D696E616C2A2A2A000D0A004D617369
:0C1E40007465722073656E64733A2000B4
:107E0000112484B714BE81FFF0D085E080938100F7
:107E100082E08093C00088E18093C10086E0809377
:107E2000C20080E18093C4008EE0C9D0259A86E02C
:107E300020E33CEF91E0309385002093840096BBD3
:107E4000B09BFECF1D9AA8958150A9F7CC24DD24C4
:107E500088248394B5E0AB2EA1E19A2EF3E0BF2EE7
:107E6000A2D0813461F49FD0082FAFD0023811F036
:107E7000013811F484E001C083E08DD089C08234E0
:107E800011F484E103C0853419F485E0A6D080C0E4
:107E9000853579F488D0E82EFF2485D0082F10E0AE
:107EA000102F00270E291F29000F111F8ED06801E7
:107EB0006FC0863521F484E090D080E0DECF843638
:107EC00009F040C070D06FD0082F6DD080E0C81688
:107ED00080E7D80618F4F601B7BEE895C0E0D1E017
:107EE00062D089930C17E1F7F0E0CF16F0E7DF06D8
:107EF00018F0F601B7BEE89568D007B600FCFDCFD4
:107F0000A601A0E0B1E02C9130E011968C91119780
:107F100090E0982F8827822B932B1296FA010C0160
:107F200087BEE89511244E5F5F4FF1E0A038BF0790
:107F300051F7F601A7BEE89507B600FCFDCF97BE46
:107F4000E89526C08437B1F42ED02DD0F82E2BD052
:107F50003CD0F601EF2C8F010F5F1F4F84911BD097
:107F6000EA94F801C1F70894C11CD11CFA94CF0C13
:107F7000D11C0EC0853739F428D08EE10CD085E9AC
:107F80000AD08FE07ACF813511F488E018D01DD067
:107F900080E101D065CF982F8091C00085FFFCCF94
:107FA0009093C60008958091C00087FFFCCF809118
:107FB000C00084FD01C0A8958091C6000895E0E648
:107FC000F0E098E1908380830895EDDF803219F02E
:107FD00088E0F5DFFFCF84E1DECF1F93182FE3DFCA
:107FE0001150E9F7F2DF1F91089580E0E8DFEE27F6
:047FF000FF270994CA
:027FFE00040479
:00000001FF
