:100000000C9462000C948A000C948A000C948A0070
:100010000C948A000C948A000C948A000C948A0038
:100020000C948A000C948A000C948A000C94CB02E5
:100030000C948A000C948A000C948A000C948A0018
:100040000C9481020C948A000C944F020C942902A7
:100050000C948A000C948A000C948A000C948A00F8
:100060000C948A000C948A000000000023002600F3
:10007000290000000000240027002A0000000000E2
:10008000250028002B0004040404040404040202D4
:100090000202020203030303030301020408102007
:1000A0004080010204081020010204081020000012
:1000B0000008000201000003040700000000000027
:1000C0000000680511241FBECFEFD8E0DEBFCDBF12
:1000D00011E0A0E0B1E0E0E9FBE002C005900D9284
:1000E000AE34B107D9F722E0AEE4B1E001C01D9211
:1000F000A935B207E1F710E0C2E6D0E004C02197CD
:10010000FE010E94B705C136D107C9F70E94070456
:100110000C94C6050C940000AF92BF92CF92DF9270
:10012000EF92FF920F931F93CF93DF936C017B01AC
:100130008B01040F151FEB015E01AE18BF08C0173D
:10014000D10759F06991D601ED91FC910190F081B0
:10015000E02DC6010995892B79F7C501DF91CF9173
:100160001F910F91FF90EF90DF90CF90BF90AF90D5
:100170000895FC01538D448D252F30E0842F90E0AD
:10018000821B930B541710F0CF9608950197089592
:10019000FC01918D828D981761F0A28DAE0FBF2F5B
:1001A000B11D5D968C91928D9F5F9F73928F90E0B1
:1001B00008958FEF9FEF0895FC01918D828D981720
:1001C00031F0828DE80FF11D858D90E008958FEF5D
:1001D0009FEF0895FC01918D228D892F90E0805C26
:1001E0009F4F821B91098F73992708958CEB91E0A3
:1001F0000E94EA0021E0892B09F420E0822F089573
:1002000080E090E0892B29F00E94F60081110C9487
:1002100000000895FC01A48DA80FB92FB11DA35AA9
:10022000BF4F2C91848D90E001968F739927848F16
:10023000A689B7892C93A089B1898C918370806439
:100240008C93938D848D981306C00288F389E02DDA
:1002500080818F7D80830895EF92FF920F931F938B
:10026000CF93DF93EC0181E0888F9B8D8C8D981369
:100270001AC0E889F989808185FF15C09FB7F89475
:10028000EE89FF896083E889F989808183708064C1
:1002900080839FBF81E090E0DF91CF911F910F910C
:1002A000FF90EF900895F62E0B8D10E00F5F1F4F1B
:1002B0000F731127E02E8C8D8E110CC00FB607FC2A
:1002C000FACFE889F989808185FFF5CFCE010E94B8
:1002D0000A01F1CFEB8DEC0FFD2FF11DE35AFF4F1B
:1002E000F0829FB7F8940B8FEA89FB898081806246
:1002F000CFCFCF93DF93EC01888D8823B9F0AA8903
:10030000BB89E889F9898C9185FD03C0808186FDD0
:100310000DC00FB607FCF7CF8C9185FFF2CF80811F
:1003200085FFEDCFCE010E940A01E9CFDF91CF9189
:100330000895833081F028F4813099F08230A9F05B
:1003400008958730A9F08830C9F08430B1F48091E5
:1003500080008F7D03C0809180008F778093800024
:10036000089584B58F7784BD089584B58F7DFBCFC4
:100370008091B0008F778093B00008958091B00095
:100380008F7DF9CF1F93CF93DF93282F30E0F901B2
:10039000E255FF4F8491F901E656FF4FD491F901E0
:1003A000EA57FF4FC491CC23A9F0162F81110E9468
:1003B0009901EC2FF0E0EE0FFF1FE458FF4FA591DD
:1003C000B4918FB7F894EC91111108C0D095DE2349
:1003D000DC938FBFDF91CF911F910895DE2BF8CF73
:1003E000CF93DF9390E0FC01E656FF4F24918A57AC
:1003F0009F4FFC0184918823D1F090E0880F991FD2
:10040000FC01EE58FF4FA591B491FC01E458FF4F59
:10041000C591D49161110EC09FB7F8948C91E22FD1
:10042000E0958E238C932881E223E8839FBFDF91A0
:10043000CF9108958FB7F894EC91E22BEC938FBF96
:10044000F6CF42E050E061E371E08CEB91E00C9478
:100450008C001F920F920FB60F9211242F933F938F
:100460004F935F936F937F938F939F93AF93BF93BC
:10047000EF93FF938CEB91E00E940A01FF91EF91C3
:10048000BF91AF919F918F917F916F915F914F91AC
:100490003F912F910F900FBE0F901F9018951F92B4
:1004A0000F920FB60F9211242F938F939F93EF9378
:1004B000FF93E091CC01F091CD018081E091D201D8
:1004C000F091D30182FD1BC090818091D5018F5F97
:1004D0008F732091D601821741F0E091D501F0E0B1
:1004E000E454FE4F958F8093D501FF91EF919F913A
:1004F0008F912F910F900FBE0F901F9018958081B4
:10050000F4CF1F920F920FB60F9211242F933F93A7
:100510008F939F93AF93BF938091610190916201FC
:10052000A0916301B09164013091600123E0230F39
:100530002D3758F50196A11DB11D209360018093C0
:10054000610190936201A0936301B0936401809173
:100550005C0190915D01A0915E01B0915F010196F7
:10056000A11DB11D80935C0190935D01A0935E017C
:10057000B0935F01BF91AF919F918F913F912F9168
:100580000F900FBE0F901F90189526E8230F02962C
:10059000A11DB11DD2CF1F920F920FB60F92112441
:1005A0001F932F933F934F935F936F937F938F93FB
:1005B0009F93AF93BF93CF93DF93EF93FF931091EC
:1005C0006701112339F180915B01811123C02091D2
:1005D000000130E0F901E255FF4F8491F901E65640
:1005E000FF4FD491F901EA57FF4FC491CC2379F022
:1005F00081110E949901EC2FF0E0EE0FFF1FE859E6
:10060000FF4FA591B491EC91DE2381E009F480E0E5
:1006100080935A0180915B018823E1F08091590118
:1006200091E0980F90935901811114C06091650178
:100630008AE00E94C20160E08CE00E94C201109238
:100640005B01809157019091580101969093580158
:100650008093570180915901883010F01092590110
:10066000112309F492C080915B0181118EC0909199
:100670005A01992329F0809156018F5F809356018A
:100680008091540120915501921709F44AC02BE042
:10069000803508F02DE1820F80935401909355012D
:1006A00020915401203A08F470C080915201909139
:1006B0005301969587959093530180935201309101
:1006C0005601353028F09860909353018093520181
:1006D000205A20935401109256018091660188237C
:1006E00009F484C0809151018F5F809351018C3057
:1006F00008F44BC08091520190915301382F3F7301
:10070000232F26952695287048E0420F421769F05E
:10071000E22FF0E0E15FFE4F5081351739F02F5F97
:10072000F5CF8C5E80935401BBCF20E040E1249F45
:100730009001112436E0969587953A95E1F7482F78
:100740009595879595958795887098E0980F981757
:1007500049F0E82FF0E0E15FFE4F5081451719F0B6
:100760008F5FF5CF80E0822B9091B801911121C06D
:10077000809350019CEF980F9D34D8F01092660141
:1007800080914F018F5F80934F01FF91EF91DF9137
:10079000CF91BF91AF919F918F917F916F915F9119
:1007A0004F913F912F911F910F900FBE0F901F906F
:1007B0001895E091B80191E09E0F9093B801F0E098
:1007C000E859FE4F80839091B801809150019817AD
:1007D00050F01092660180914E018F5F80934E0120
:1007E00081E08093B90110925101CFCF80915201E5
:1007F0009091530188339B4041F681E080936601DC
:10080000109251011092B8011092B901BECFCF934E
:10081000DF93CDB7DEB7C055D1090FB6F894DEBF70
:100820000FBECDBF789484B5826084BD84B58160ED
:1008300084BD85B5826085BD85B5816085BD8091AB
:100840006E00816080936E00109281008091810023
:10085000826080938100809181008160809381001B
:10086000809180008160809380008091B1008460DD
:100870008093B1008091B00081608093B00080913E
:100880007A00846080937A0080917A0082608093FD
:100890007A0080917A00816080937A0080917A005A
:1008A000806880937A001092C100E091CC01F091B1
:1008B000CD0182E08083E091C801F091C9011082EE
:1008C000E091CA01F091CB018FEC80831092D401AA
:1008D000E091D001F091D10186E08083E091CE01DA
:1008E000F091CF01808180618083E091CE01F09111
:1008F000CF01808188608083E091CE01F091CF01AB
:10090000808180688083E091CE01F091CF01808169
:100910008F7D808349E150E064E371E08CEB91E0EE
:100920000E948C000E94210281E0809365018EE08C
:10093000E1E0F1E0DE01119601900D928A95E1F778
:100940007E0123E0E20EF11C11E0812C24E2922EC4
:1009500024EFA22EB12C30E8432E3EE3532E612C1F
:10096000712CF701219131917F0150E040E0C501E8
:10097000B4010E949505CA01B901A30192010E9428
:100980009505223031054105510508F078C01F5FFB
:10099000173039F78BE08093000180916701811156
:1009A00005C081E0809367011092660180E0E82E27
:1009B00080E0F82ECC24C394D12C8091B9018823F7
:1009C00009F451C00091B8010350003508F000E56A
:1009D00010E0A80169E671E0CE0101960E94BD0514
:1009E0001092B9012091B801E8E6F1E08FEF9FEF96
:1009F000215098F031918327082E8295807F8025A1
:100A0000092E982F82958F7008268695982789271A
:100A1000880F880F880F8025EBCF883B904F19F502
:100A20008981813301F5D092BB01C092BA01A090B7
:100A3000BA01B090BB01A016B1069CF4E1E0F0E071
:100A4000EC0FFD1FEA0DFB1D60818CEB91E00E9415
:100A50002C012FEFA21AB20AB092BB01A092BA01E8
:100A6000E6CF0E942102E114F10409F4A6CF0E940E
:100A7000F600882309F4A1CF0E9400009ECF163013
:100A800009F488CF1092800088E0809381008091E3
:100A90008100182B109381003093890020938800E7
:100AA00080916F00826080936F0061E08CE00E9413
:100AB000F00160E0809100010E94F00161E08AE0B5
:100AC0000E94F001609165018AE00E94C20162CF3C
:100AD000ECEBF1E01382128288EE93E0A0E0B0E04C
:100AE00084839583A683B78383E291E09183808397
:100AF00085EC90E09587848784EC90E097878687E3
:100B000080EC90E0918B808B81EC90E0938B828BDA
:100B100082EC90E0958B848B86EC90E0978B868BB3
:100B2000118E128E138E148E0895A1E21A2EAA1B16
:100B3000BB1BFD010DC0AA1FBB1FEE1FFF1FA2178D
:100B4000B307E407F50720F0A21BB30BE40BF50B8A
:100B5000661F771F881F991F1A9469F76095709513
:100B6000809590959B01AC01BD01CF010895EE0FDA
:100B7000FF1F0590F491E02D0994FB01DC0102C0F8
:100B800001900D9241505040D8F70895F894FFCF4E
:100B90000B000001000800400000010004050D0DDD
:100BA0000E131516191A1C232526292A2C32340057
:100BB0000000002C018C00B9007901EA00C800DCBB
:100BC000000D0A002A2A2A5245434549564552201B
:0E0BD00041205465726D696E616C2A2A2A00FC
:00000001FF
