:100000000C9462000C948A000C948A000C948A0070
:100010000C948A000C948A000C948A000C948A0038
:100020000C948A000C948A000C948A000C94140896
:100030000C948A000C948A000C948A000C948A0018
:100040000C94AB060C948A000C9479060C9453061D
:100050000C948A000C948A000C948A000C948A00F8
:100060000C94F5060C948A00000000002400270080
:100070002A0000000000250028002B0000000000DE
:1000800023002600290004040404040404040202DA
:100090000202020203030303030301020408102007
:1000A0004080010204081020010204081020000012
:1000B0000008000201000003040700000000000027
:1000C0000000870811241FBECFEFD8E0DEBFCDBFF0
:1000D00023E0AEE1B2E001C01D92AC37B207E1F718
:1000E00012E0A0E0B1E0E6E4FBE102C005900D9271
:1000F000AE31B107D9F710E0C2E6D0E004C02197D5
:10010000FE010E94A90BC136D107C9F70E94C008A1
:100110000C94A10D0C9400000895CF93DF93AC01D3
:10012000E091C702F091C8023097F1F09091C602B9
:100130008091C5029817C0F090E0292F30E0261773
:10014000370754F4D901AA5DBD4F240F351FE901CB
:1001500028812C939F5FF1CF1092C6026093C50255
:10016000CB01DF91CF910994DF91CF910895AF92A8
:10017000BF92CF92DF92EF92FF920F931F93CF9394
:10018000DF936C017B018B01040F151FEB015E01F6
:10019000AE18BF08C017D10759F06991D601ED918B
:1001A000FC910190F081E02DC6010995892B79F72A
:1001B000C501DF91CF911F910F91FF90EF90DF90DC
:1001C000CF90BF90AF900895FC01538D448D252FA3
:1001D00030E0842F90E0821B930B541710F0CF96E1
:1001E000089501970895FC01918D828D981761F013
:1001F000A28DAE0FBF2FB11D5D968C91928D9F5F2A
:100200009F73928F90E008958FEF9FEF0895FC0108
:10021000918D828D981731F0828DE80FF11D858DBB
:1002200090E008958FEF9FEF0895FC01918D228D4E
:10023000892F90E0805C9F4F821B91098F739927D3
:1002400008958FEC92E00E94150121E0892B09F4BA
:1002500020E0822F089580E090E0892B29F00E9411
:10026000210181110C9400000895FC01A48DA80FB8
:10027000B92FB11DA35ABF4F2C91848D90E00196E8
:100280008F739927848FA689B7892C93A089B18908
:100290008C91837080648C93938D848D981306C0A9
:1002A0000288F389E02D80818F7D80830895EF920D
:1002B000FF920F931F93CF93DF93EC0181E0888F20
:1002C0009B8D8C8D98131AC0E889F989808185FFF0
:1002D00015C09FB7F894EE89FF896083E889F98992
:1002E00080818370806480839FBF81E090E0DF9194
:1002F000CF911F910F91FF90EF900895F62E0B8DE7
:1003000010E00F5F1F4F0F731127E02E8C8D8E11A1
:100310000CC00FB607FCFACFE889F989808185FF08
:10032000F5CFCE010E943501F1CFEB8DEC0FFD2F03
:10033000F11DE35AFF4FF0829FB7F8940B8FEA89C3
:10034000FB8980818062CFCFCF93DF93EC01888DD2
:100350008823B9F0AA89BB89E889F9898C9185FD40
:1003600003C0808186FD0DC00FB607FCF7CF8C91CE
:1003700085FFF2CF808185FFEDCFCE010E94350150
:10038000E9CFDF91CF910895833081F028F4813057
:1003900099F08230A9F008958730A9F08830C9F02B
:1003A0008430B1F4809180008F7D03C08091800003
:1003B0008F7780938000089584B58F7784BD0895EA
:1003C00084B58F7DFBCF8091B0008F778093B00094
:1003D00008958091B0008F7DF9CFCF93DF93282FC0
:1003E00030E0F901E255FF4F8491F901E656FF4FE5
:1003F000D491F901EA57FF4FC491CC23A1F08111A8
:100400000E94C401EC2FF0E0EE0FFF1FE458FF4FF5
:10041000A591B491EC91ED2381E090E009F480E0A6
:10042000DF91CF91089580E090E0FACF1F93CF93B2
:10043000DF93282F30E0F901E255FF4F8491F90155
:10044000E656FF4FD491F901EA57FF4FC491CC23F0
:10045000A9F0162F81110E94C401EC2FF0E0EE0FDD
:10046000FF1FEE58FF4FA591B4918FB7F894EC9110
:10047000111108C0D095DE23DC938FBFDF91CF919F
:100480001F910895DE2BF8CFCF93DF9390E0FC010E
:10049000E656FF4F24918A579F4FFC018491882391
:1004A000C9F090E0880F991FFC01E859FF4FA59112
:1004B000B491FC01EE58FF4FC591D49161110DC06C
:1004C0009FB7F8948C91209582238C938881282360
:1004D00028839FBFDF91CF910895623051F49FB779
:1004E000F8943C91822F809583238C93E8812E2B66
:1004F000EFCF8FB7F894EC912E2B2C938FBFEACFD0
:100500003FB7F8948091BB029091BC02A091BD02CC
:10051000B091BE0226B5A89B05C02F3F19F00196E9
:10052000A11DB11D3FBFBA2FA92F982F8827BC014D
:10053000CD01620F711D811D911D42E0660F771F75
:10054000881F991F4A95D1F708958F929F92AF9275
:10055000BF92CF92DF92EF92FF924B015C010E941B
:1005600080026B017C010E9480026C197D098E095A
:100570009F09683E734081059105A8F321E0821A26
:100580009108A108B10888EEC80E83E0D81EE11CCE
:10059000F11C81149104A104B10429F7FF90EF909C
:1005A000DF90CF90BF90AF909F908F900895209153
:1005B0006C02260F3327331F21323105ECF42091D2
:1005C0009002FC0190E080E0243069F082E0089520
:1005D000A0916C022191AC01445B5D4FA40FB52F3B
:1005E000B11D2C930196861798F380916C02680FC9
:1005F00060936C0280E0089581E00895109290026B
:1006000081E0809392021092910261E082E10E9467
:10061000160261E083E10E941602E9EBF0E08081BE
:100620008E7F808380818D7F808388E48093B80073
:1006300085E48093BC0008950895E091C6028091FE
:10064000C502E81730F4F0E0EA5DFD4F808190E0EC
:1006500008958FEF9FEF08959091C6028091C50293
:100660002FEF3FEF981748F4E92FF0E0EA5DFD4FD8
:10067000208130E09F5F9093C602C9010895809168
:10068000C5029091C602891B990B0895CF93DF9301
:10069000CB01EA01642F0E94D702CE01DF91CF91F6
:1006A0000895CF93DF931F92CDB7DEB7698361E0E2
:1006B000CE0101960E94D70281E090E00F90DF9179
:1006C000CF91089590E080E008958627082E8295C6
:1006D000807F8025092E982F82958F700826869519
:1006E00098278927880F880F880F80250895CF9233
:1006F000DF92EF92FF920F931F93CF93DF938C01C2
:100700008091CD028111FCCF6EE18FEF9FEF0E94AF
:1007100065032EE02093090122E320930A01E801FA
:1007200061E0E62E61E0F62E055E1F4F6E016991D5
:100730000E946503D601EC91F0E054E0F595E79551
:100740005A95E1F7E354FE4F2081F7012287FE011D
:100750003197E081EF70F0E0E354FE4F2081D70144
:100760001B962C93B2E0EB0EF11C0C171D07F1F653
:1007700080959095FC0124E0F695E7952A95E1F7A0
:10078000EF70FF27E354FE4F208120934101FC01CD
:10079000EF70FF27E354FE4F208120934201FC01BC
:1007A000EF2FFF27E295EF70E354FE4F2081209357
:1007B0004301E92FFF27EF70FF27E354FE4F8081AD
:1007C0008093440184E48093CE021092CC02109274
:1007D000CB021092CA026091C902C1E06C278AE084
:1007E0000E941602C093CD0281E0DF91CF911F914C
:1007F0000F91FF90EF90DF90CF900895CF93DF930C
:10080000CDB7DEB7C456D1090FB6F894DEBF0FBE20
:10081000CDBF87E00E94ED010197B1F486E00E9410
:10082000ED01019789F485E00E94ED01019761F4E3
:100830008BE495E09093C8028093C70262E370E076
:1008400080E090E00E94A50287E00E94ED01892BE4
:1008500009F046C0FE017B968AE4DF011D928A956D
:10086000E9F781E3898390E59A838B8390E29C8307
:1008700020E72D8335E73E8383E78F8348E648876B
:10088000998742E64A873B8734E73C873D873FE6C6
:100890003E873EE63F87988B39E6398B8A8B9B8B68
:1008A0002C8B92E79D8B95E69E8B8F8B888F998FF3
:1008B00084E68A8F8EE28B8FCE0101960E947703A9
:1008C00064E670E080E090E00E94A502CC59DF4F22
:1008D0000FB6F894DEBF0FBECDBFDF91CF91089564
:1008E00086E00E94ED01892B49F4FE017B968AE4A3
:1008F000DF011D928A95E9F782E3B4CF85E00E947B
:10090000ED01892B19F7FE017B968AE4DF011D9228
:100910008A95E9F783E3A6CFFC0101900020E9F76F
:100920003197AF01481B590BBC018FEC92E00C943E
:10093000B7000F931F93CF93DF93EC0188819981C8
:10094000009759F02A813B812617370730F081E064
:10095000DF91CF911F910F9108958B016F5F7F4FB2
:100960000E94D40C009759F0998388831B830A83D3
:100970002C813D81232B59F7FC011082E8CF80E0C8
:10098000E7CFCF93DF93EC0188819981009711F035
:100990000E944B0C198218821D821C821B821A82B3
:1009A000DF91CF910895EF92FF920F931F93CF9312
:1009B000DF93EC017B018A01BA010E949904811145
:1009C0000BC0CE010E94C104CE01DF91CF911F91D7
:1009D0000F91FF90EF9008951D830C83B7018881DC
:1009E00099810E949A0DF0CFCF93DF9385ED80938C
:1009F000BC008091480290914902A0914A02B091B6
:100A00004B020796A11DB11D23E0B695A7959795BA
:100A100087952A95D1F72091BC0024FD03C0109240
:100A2000900236C0409148025091490260914A02BA
:100A300070914B02452B462B472B69F30097A1057C
:100A4000B10541F025E32A95F1F700000197A109CE
:100A5000B109E1CF8091470291E09093460288234B
:100A6000B9F0C091B800D091BA008091BC008A7BE7
:100A70008093BC0060E082E10E94160260E083E1A6
:100A80000E9416020E94FE02D093BA00C093B800E2
:100A9000DF91CF910895CF92DF92EF92FF920F9363
:100AA0001F93CF93DF93CDB7DEB7A9970FB6F89416
:100AB000DEBF0FBECDBF1BA21AA21DA21CA21FA289
:100AC0001EA250E040E062E072E0CE0182960E94F9
:100AD000D3048091C5029091C602891B990B181608
:100AE00019060CF04DC08CE693E00E942C03182FE1
:100AF0001A8219821C821B821E821D826AA17BA11E
:100B00006115710531F04EA15FA1CE0101960E94E1
:100B1000D30418A719A60D811E810F5F1F4FB801BE
:100B2000CE0101960E949904882301F129813A811E
:100B30008D819E81BE01685D7F4F820F931F0E9451
:100B40009A0D1E830D8369817A816115710599F073
:100B50004D815E81CE0182960E94D30489819A8163
:100B6000009709F4B6CF0E944B0CB3CFCE0101968B
:100B70000E94C104E8CFCE0182960E94C104EECF4C
:100B80008AA19BA1009709F46FC00E94E3090E940B
:100B9000210A26E933E44BE05DE30E945C0A20E091
:100BA00030E040E05FE30E945C0A0E94510B6093DA
:100BB0001E0270931F02809320029093210281EF06
:100BC00091E00E948C04C0901E02D0901F02E09021
:100BD0002002F0902102F7FE4BC06DE28FEC92E014
:100BE0000E94570122273327A9012C193D094E09DC
:100BF0005F0919A28E010F5D1F4F9AE0C92ED12CFB
:100C0000E12CF12CCA01B901A70196010E94870BC2
:100C1000605DF80162938F01211531054105510591
:100C200089F70115110519F0C8010E948C048CEF99
:100C300091E00E948C0480E092E00E948C048AA1E2
:100C40009BA1009711F00E944B0CA9960FB6F89447
:100C5000DEBF0FBECDBFDF91CF911F910F91FF90EF
:100C6000EF90DF90CF90089560E070E0CB018FCFE0
:100C7000A701960119A28E010F5D1F4F8AE0C82EB1
:100C8000D12CE12CF12CCA01B901A70196010E94D7
:100C9000870B605DF80162938F01211531054105D5
:100CA000510589F7BECF1F920F920FB60F921124F4
:100CB0002F933F934F935F936F937F938F939F9364
:100CC000AF93BF93EF93FF938FEC92E00E943501B7
:100CD000FF91EF91BF91AF919F918F917F916F9114
:100CE0005F914F913F912F910F900FBE0F901F90EA
:100CF00018951F920F920FB60F9211242F938F9376
:100D00009F93EF93FF93E091DF02F091E0028081E7
:100D1000E091E502F091E60282FD1BC09081809196
:100D2000E8028F5F8F732091E902821741F0E09112
:100D3000E802F0E0E153FD4F958F8093E802FF91C8
:100D4000EF919F918F912F910F900FBE0F901F9059
:100D500018958081F4CF1F920F920FB60F92112435
:100D60002F933F938F939F93AF93BF938091B7023D
:100D70009091B802A091B902B091BA023091B60236
:100D800023E0230F2D3758F50196A11DB11D2093A7
:100D9000B6028093B7029093B802A093B902B093C1
:100DA000BA028091BB029091BC02A091BD02B091A9
:100DB000BE020196A11DB11D8093BB029093BC029F
:100DC000A093BD02B093BE02BF91AF919F918F914E
:100DD0003F912F910F900FBE0F901F90189526E80E
:100DE000230F0296A11DB11DD2CF1F920F920FB6F5
:100DF0000F9211242F933F934F935F936F937F93A1
:100E00008F939F93AF93BF93EF93FF938091B9001C
:100E1000887F803609F44AC0F0F5883209F4A7C00B
:100E200018F5803109F49BC0B8F4882309F4F9C09F
:100E3000883009F494C0FF91EF91BF91AF919F91D9
:100E40008F917F916F915F914F913F912F910F9073
:100E50000FBE0F901F901895883109F488C080321A
:100E600051F780938F0214C0803409F49DC040F480
:100E70008033B9F38833F9F680938F0285ECB0C0E4
:100E8000803509F485C0883509F496C0883499F610
:100E90000E94F404D0CF883909F48CC038F5883723
:100EA00029F050F4883611F0803729F683E08093DA
:100EB000900210928E0257C0883809F47BC08039A6
:100EC00019F0803809F0B7CF80918E02803208F097
:100ED00071C0E0918E0281E08E0F80938E0280912E
:100EE000BB00F0E0E259FD4F80833DC0803B39F00C
:100EF000E0F4803A09F479C0883A09F09CCF84E0A4
:100F00008093900210926D0210926C02E091C102E7
:100F1000F091C202099580916C0281110FC081E0AD
:100F200080936C0210924C0209C0803C09F4A6CF59
:100F3000883C09F4A3CF883B09F07DCFE0916D0296
:100F400081E08E0F80936D02F0E0E45BFD4F8081C5
:100F50008093BB0090916D0280916C0229C08091BA
:100F6000B5028093BB0085EC8093BC0064CF909168
:100F7000B4028091B302981758F5E091B40281E071
:100F80008E0F8093B402F0E0ED56FD4F8081E9CFE3
:100F9000E091B40281E08E0F8093B4028091BB0097
:100FA000F0E0ED56FD4F80839091B4028091B30242
:100FB0009817C8F285E8D8CFE091B40281E08E0F8F
:100FC0008093B4028091BB00F0E0ED56FD4F80832A
:100FD0008091920281115CCF81E08093910284EA3A
:100FE0008093BC001092900226CF85EC8093BC00C9
:100FF0001092900280918E02803230F4E0918E0245
:10100000F0E0E259FD4F108260918E0270E0E091B5
:10101000BF02F091C0028EE692E0099510928E0216
:101020000ACF10928F0234CF1F920F920FB60F92F9
:1010300011241F932F933F934F935F936F937F934D
:101040008F939F93AF93BF93CF93DF93EF93FF93D0
:101050008091CD02882321F18091CA0291E0980FFE
:101060009093CA0281111CC0C091CC021091000162
:101070008091CE02C81770F16091C9028AE00E9487
:10108000160260E0812F0E9416021092CD0280911C
:1010900024029091250201969093250280932402C8
:1010A0008091CA02883010F01092CA02FF91EF912D
:1010B000DF91CF91BF91AF919F918F917F916F9170
:1010C0005F914F913F912F911F910F900FBE0F9005
:1010D0001F901895EC2FF0E0EF5FFE4F608120919C
:1010E000CB02D1E0D20FD093CB0281E090E001C0DF
:1010F000880F2A95EAF76823812F0E941602D630BE
:10110000A8F21092CB02CF5FC093CC02C9CFEFEC14
:10111000F2E01382128288EE93E0A0E0B0E08483D4
:101120009583A683B78321ED31E03183208325ECBD
:1011300030E03587248724EC30E03787268720ECA1
:1011400030E0318B208B21EC30E0338B228B22EC92
:1011500030E0358B248B26EC30E0378B268B118EDC
:10116000128E138E148EECE6F3E0138212828483C7
:101170009583A683B78383EE91E09183808308955E
:10118000CF93DF93CDB7DEB72E970FB6F894DEBFBF
:101190000FBECDBF789484B5826084BD84B5816074
:1011A00084BD85B5826085BD85B5816085BD809132
:1011B0006E00816080936E001092810080918100AA
:1011C00082608093810080918100816080938100A2
:1011D000809180008160809380008091B100846064
:1011E0008093B1008091B00081608093B0008091C5
:1011F0007A00846080937A0080917A008260809384
:101200007A0080917A00816080937A0080917A00E0
:10121000806880937A001092C1001092C6021092EA
:10122000C5021092C4021092C3020E94FE028CE812
:1012300090E09093C2028093C1028DE890E0909379
:10124000C0028093BF0284E68093BA00E091DF027F
:10125000F091E00282E08083E091DB02F091DC0219
:101260001082E091DD02F091DE028FEC808310921B
:10127000E702E091E302F091E40286E08083E091EE
:10128000E102F091E202808180618083E091E102DD
:10129000F091E202808188608083E091E102F09128
:1012A000E202808180688083E091E102F091E202B5
:1012B00080818F7D80838BE495E09093C80280933A
:1012C000C70283E092E00E948C0480E092E00E94DA
:1012D0008C0462E087E00E94440262E086E00E94A3
:1012E000440262E085E00E94440281E08093C902EA
:1012F0008EE0EFEAF1E0DE01119601900D928A9501
:10130000E1F77E0183E0E80EF11C11E0812C84E21C
:10131000982E84EFA82EB12C90E8492E9EE3592EEA
:10132000612C712CF701219131917F0150E040E057
:10133000C501B4010E94870BCA01B901A301920142
:101340000E94870B2230310541055105A0F41F5F33
:10135000173041F78CE08093000100E010E00E941C
:10136000FE0301151105D9F30E9421018823B9F369
:101370000E940000F4CF163069F31092800088E0DC
:101380008093810080918100182B1093810030930D
:1013900089002093880080916F00826080936F00A5
:1013A00061E0809100010E94440260E08BE00E94B5
:1013B000440261E08AE00E9444026091C9028AE02E
:1013C0000E941602C7CF1F93FC0199278827BC01F2
:1013D000E89411911032E9F3193010F01E30C8F37F
:1013E0001B3251F01D3249F4689406C00E940A0A6B
:1013F000610F711D811D911D119110531A30B0F3B1
:101400003EF490958095709561957F4F8F4F9F4FDB
:101410001F910895592F482F372F262F660F771FBA
:10142000881F991F660F771F881F991F620F731FF0
:10143000841F951F660F771F881F991F0895E894D2
:1014400009C097FB3EF490958095709561957F4F0C
:101450008F4F9F4F9923A9F0F92F96E9BB279395BA
:10146000F695879577956795B795F111F8CFFAF4CA
:10147000BB0F11F460FF1BC06F5F7F4F8F4F9F4FFB
:1014800016C0882311F096E911C0772321F09EE859
:10149000872F762F05C0662371F096E8862F70E0BF
:1014A00060E02AF09A95660F771F881FDAF7880F99
:1014B0009695879597F908950E946F0A0C94E00A13
:1014C0000E94D20A38F00E94D90A20F0952311F028
:1014D0000C94C90A0C94CF0A11240C94140B0E948A
:1014E000F10A70F3959FC1F3950F50E0551F629F6D
:1014F000F001729FBB27F00DB11D639FAA27F00D6D
:10150000B11DAA1F649F6627B00DA11D661F829F93
:101510002227B00DA11D621F739FB00DA11D621F78
:10152000839FA00D611D221F749F3327A00D611D95
:10153000231F849F600D211D822F762F6A2F112477
:101540009F5750409AF0F1F088234AF0EE0FFF1FAA
:10155000BB1F661F771F881F91505040A9F79E3F01
:10156000510580F00C94C90A0C94140B5F3FE4F30E
:10157000983ED4F3869577956795B795F795E79557
:101580009F5FC1F7FE2B880F911D9695879597F960
:10159000089597F99F6780E870E060E008959FEFF5
:1015A00080EC089500240A941616170618060906FA
:1015B000089500240A9412161306140605060895C9
:1015C000092E0394000C11F4882352F0BB0F40F451
:1015D000BF2B11F460FF04C06F5F7F4F8F4F9F4F91
:1015E000089557FD9058440F551F59F05F3F71F013
:1015F0004795880F97FB991F61F09F3F79F087957A
:101600000895121613061406551FF2CF4695F1DF02
:1016100008C0161617061806991FF1CF8695710592
:10162000610508940895E894BB2766277727CB01C6
:1016300097F908952F923F924F925F926F927F9207
:101640008F929F92AF92BF92CF92DF92EF92FF92D2
:101650000F931F93CF93DF93CDB7DEB7CA1BDB0B7E
:101660000FB6F894DEBF0FBECDBF09942A88398823
:1016700048885F846E847D848C849B84AA84B9842A
:10168000C884DF80EE80FD800C811B81AA81B98136
:10169000CE0FD11D0FB6F894DEBF0FBECDBFED014A
:1016A00008950E94580B6894B1110C94140B08957E
:1016B0000E94F90A88F09F5798F0B92F9927B751DF
:1016C000B0F0E1F0660F771F881F991F1AF0BA95E6
:1016D000C9F714C0B13091F00E94130BB1E0089526
:1016E0000C94130B672F782F8827B85F39F0B93F18
:1016F000CCF3869577956795B395D9F73EF4909599
:101700008095709561957F4F8F4F9F4F0895A1E20F
:101710001A2EAA1BBB1BFD010DC0AA1FBB1FEE1F6B
:10172000FF1FA217B307E407F50720F0A21BB30BB6
:10173000E40BF50B661F771F881F991F1A9469F732
:1017400060957095809590959B01AC01BD01CF018E
:101750000895EE0FFF1F0590F491E02D09940F936B
:101760001F93CF93DF938230910510F482E090E0D5
:10177000E0917A03F0917B0330E020E0B0E0A0E05C
:10178000309799F42115310509F44AC0281B390B0B
:1017900024303105D8F58A819B816115710589F165
:1017A000FB0193838283FE0111C04081518102813C
:1017B000138148175907E0F04817590799F4109713
:1017C00061F012960C93129713961C933296CF01E8
:1017D000DF91CF911F910F91089500937A03109399
:1017E0007B03F4CF2115310551F04217530738F030
:1017F000A901DB019A01BD01DF01F801C1CFEF01B1
:10180000F9CF90937B0380937A03CDCFFE01E20F53
:10181000F31F819391932250310939832883D7CFC5
:101820002091780330917903232B41F42091AB016F
:101830003091AC0130937903209378032091A90172
:101840003091AA012115310541F42DB73EB74091E1
:10185000AD015091AE01241B350BE0917803F0915E
:101860007903E217F307A0F42E1B3F0B2817390763
:1018700078F0AC014E5F5F4F2417350748F04E0FEC
:101880005F1F5093790340937803819391939FCF87
:10189000F0E0E0E09CCFCF93DF930097E9F0FC010C
:1018A000329713821282A0917A03B0917B03ED01EB
:1018B00030E020E01097A1F420813181820F931F46
:1018C00020917803309179032817390709F061C016
:1018D000F0937903E0937803DF91CF910895EA01C3
:1018E000CE17DF07E8F54A815B819E01411551055E
:1018F000B1F7E901FB83EA8349915991C40FD51FE0
:10190000EC17FD0761F4808191810296840F951F89
:10191000E90199838883828193819B838A83F0E0A4
:10192000E0E012968D919C9113970097B9F52D9157
:101930003C911197CD010296820F931F209178035D
:10194000309179032817390739F6309751F51092FD
:101950007B0310927A03B0937903A0937803BCCFF2
:10196000D383C28340815181840F951FC817D90743
:1019700061F44E5F5F4F88819981480F591F5183F1
:1019800040838A819B81938382832115310509F0ED
:10199000B0CFF0937B03E0937A039ECFFD01DC018F
:1019A000C0CF13821282D7CFB0E0A0E0EAEDFCE016
:1019B0000C941C0B8C01009751F4CB010E94AF0BCF
:1019C0008C01C801CDB7DEB7E0E10C94380BFC0107
:1019D000E60FF71F9C0122503109E217F30708F4C4
:1019E0009DC0D901CD91DC911197C617D70798F00A
:1019F000C530D10530F3CE0104978617970708F359
:101A0000C61BD70B2297C193D1936D937C93CF01C3
:101A10000E944B0CD6CF5B01AC1ABD0A4C018C0E58
:101A20009D1EA0917A03B0917B03512C412CF12C87
:101A3000E12C109731F58091780390917903881506
:101A4000990509F05CC04616570608F058C0809109
:101A5000A9019091AA01009741F48DB79EB74091DA
:101A6000AD015091AE01841B950BE817F90708F002
:101A700055C0F0937903E0937803F9017183608393
:101A8000A0CF8D919C91119712966C9012971396FE
:101A90007C901397A815B90559F56C0142E0C40E66
:101AA000D11CCA14DB0420F1AC014A195B09DA012C
:101AB0001296159780F06282738251834083D90118
:101AC0006D937C93E114F10471F0D7011396FC93AC
:101AD000EE93129776CF22968C0F9D1FF90191837A
:101AE0008083F301EFCFF0937B03E0937A0369CF18
:101AF0004816590608F42C017D01D3019ACFCB0179
:101B00000E94AF0B7C01009749F0AE01B8010E9422
:101B1000910DC8010E944B0C870153CF10E000E0EB
:101B200050CFFB01DC0102C001900D9241505040AA
:101B3000D8F70895FB01DC0101900D920020E1F738
:061B40000895F894FFCFA8
:101B46000C2A2A2A2A2A2A382C0000000000000023
:101B5600000000000000000000000000000000007F
:101B6600000000000000000000000000000000006F
:101B7600000000000000000000000000000000005F
:101B8600000000000000000000000000000000004F
:101B9600000000000000000000000000000000003F
:101BA600000000000000000000000000000000002F
:101BB600000000000000000000000000000000001F
:101BC600000000000000000000000000000000000F
:101BD60000000000000000000000000000000000FF
:101BE60000000000000000000000007C03800000F0
:101BF6000001000800400000010004050D0D0E1351
:101C06001516191A1C232526292A2C323400000001
:101C1600005701B700E400A4011501F30007010015
:101C26000000005103460362031C033F032C031DFF
:101C36000344697374616E63653A200020636D0026
:101C46000D0A002A2A2A536C617665202835302928
:0E1C5600205465726D696E616C2A2A2A0000A6
:00000001FF
